:020000040800F2
:10000000780D0020A9010008F51400081D11000852
:10001000F1140008B5020008D9180008000000001B
:10002000000000000000000000000000291500088A
:10003000B902000800000000251500085D15000841
:10004000C3010008C3010008C3010008C301000880
:10005000C3010008C3010008C3010008C301000870
:10006000C3010008C3010008BD020008C301000865
:10007000C3010008C3010008C3010008C301000850
:10008000C3010008C3010008C3010008000000000C
:10009000000000000000000000000000C301000894
:1000A000C3010008C3010008C3010008C301000820
:1000B000C3010008C301000851160008C30100086D
:1000C000C3010008C3010008C3010008C301000800
:1000D000C3010008D1180008C30100080000000097
:1000E000C3010008C3010008C301000800000000AC
:1000F000000000000000000000000000C301000834
:1001000000000000C3010008C3010008C30100088B
:1001100000000000000000000000000000000000DF
:10012000C3010008C3010008C3010008C30100089F
:10013000C3010008000000000000000000000000F3
:10014000000000000000000000000000C3010008E3
:10015000C3010008C3010008C3010008C30100086F
:10016000C3010008C30100080000000000000000F7
:10017000000000000000000000000000000000007F
:1001800000000000C30100080000000000000000A3
:10019000C3010008DFF80CD000F07AF800480047EF
:1001A000711C0008780D002006488047064800476B
:1001B000FEE7FEE7FEE7FEE7FEE7FEE7FEE7FEE717
:1001C000FEE7FEE73D160008950100082DE9F05F07
:1001D0000546002092469B468846064681464024B6
:1001E0001BE0284641464746224600F041F8534668
:1001F0005A46C01A914110D311461846224600F0C3
:1002000028F82D1A67EB01084F46224601200021ED
:1002100000F01FF817EB00094E41201EA4F1010465
:10022000DFDC484631462A464346BDE8F09FD2B25D
:1002300001E000F8012B491EFBD270470022F6E7CF
:1002400010B513460A4604461946FFF7F0FF20464C
:1002500010BD202A04DB203A00FA02F1002070478A
:100260009140C2F1200320FA03F3194390407047F4
:10027000202A04DB203A21FA02F00021704721FAFB
:1002800002F3D040C2F12002914008431946704762
:10029000064C074D06E0E06840F0010394E80700D3
:1002A00098471034AC42F6D3FFF778FF14200008CB
:1002B00034200008FEE700007047000080B51020E1
:1002C00000F012F880BD0000EFF3108072B600BF9E
:1002D000FEE70000102818BF704780B501F086FBCC
:1002E000BDE880407047000080B543F61441C4F279
:1002F00001010A68024208BF80BD0860FFF7EAFFFB
:1003000080BD00002DE9F04F83B000F13E4202F1C4
:10031000FF724FEAB22241F600470192C4F202078F
:1003200008224FF0010E00254FF0000A4FF00008A0
:10033000B84208BF072200920AE000BF08F1010896
:100340000AF1040AB8F1100F05F1020500F0A280CD
:100350000C680EFA08FB14EA0B09EFD04C6804F0A5
:10036000030CACF1010EBEF1010F11D80322876816
:1003700002FA05F6CA68B743AA403A438260426867
:10038000C4F3001722EA0B0207FA08F73A43426067
:10039000BCF1030F1CD0C26803238E6803FA05F773
:1003A000BA4306FA05F73A43BCF1020FC2600FD117
:1003B0006FF0030202EA580202440AF01C060F23FF
:1003C000176A03FA06F40B69A743B3403B43136271
:1003D000026803234F68AB409A4307F00303AB4026
:1003E0001A4317F4403F4FF0010E0260A6D00022DE
:1003F00043F644030292C4F202031A6843F600442F
:1004000042F480421A601A68C4F2010402F4804285
:100410000292029A28F003024FF6084B2244CFF6CC
:10042000FF7B52F80B300AF00C070F26BE4023EA80
:10043000060C019B009E072B38BF1E4606FA07F7E5
:1004400047EA0C0342F80B3022684B6842EA09077E
:10045000DE0358BF22EA0907276062689E0342EA6A
:10046000090758BF22EA09076760A268DE0242EA6C
:10047000090758BF22EA0907A76043F60C47C4F2F0
:1004800001073A689B0242EA090358BF22EA0903BE
:100490003B6053E703B0BDE8F08F000000690840FF
:1004A00018BF012070470000426902EA010391432E
:1004B00041EA034181617047002A08BF0904816154
:1004C0007047000040F67410C2F2000000687047E8
:1004D00040F20C0040F67411C2F20000C2F20001BA
:1004E00000780A68104408607047000080B543F641
:1004F0000040C4F20200016841F40071016001682B
:1005000041F480610160016841F480710160032061
:1005100000F060F80F2000F005F800F02BF8002044
:1005200080BD0000B0B540F20C02C2F2000240F201
:1005300008011278C2F200014FF47A730968B3FB24
:10054000F2F20446B1FBF2F1084600F093FB0F2CE7
:100550004FF001050CD858B94FF0FF30214600226A
:10056000002500F027F840F21000C2F200000460FD
:100570002846B0BD82B0002043F640010190C4F28D
:1005800002014A6842F480424A604A6802F48042AA
:100590000192019A0090086840F080500860086855
:1005A00000F080500090009802B0704780B501F0D4
:1005B00095F980BD70B514460D46064601F09EF9CA
:1005C0002946224600F098FF0146304601F09EF988
:1005D00070BD000080B501F0ABF980BD2DE9F041A0
:1005E000002800F08B8043F60808C4F20208044695
:1005F000D8F8F8030D4600F00700884207D288F8C3
:10060000F853D8F8F80300F00700A84276D1206824
:10061000810717D5410705D5D8F8001041F4E051FE
:10062000C8F80010010705D5D8F8001041F4604162
:10063000C8F80010D8F80010A26821F0F0011143AA
:10064000C8F80010C0073FD1D8F8F80300F0070041
:10065000A84207D988F8F853D8F8F80300F0070043
:10066000A8424BD12068410707D5D8F80010E268AE
:1006700021F4E0511143C8F80010000708D5D8F85C
:100680000000216920F4604040EAC100C8F8000081
:1006900000F07EF8D8F8001041F6FC72C1F30311A7
:1006A000C0F60002515C40F2080220FA01F140F26B
:1006B0001000C2F200000068C2F200021160FFF7F1
:1006C00031FF0020BDE8F0816068811E022907D259
:1006D00058F8081C89015CBF0120BDE8F08110E0DA
:1006E000012807D158F8081C89035CBF0120BDE828
:1006F000F08106E058F8081C890702D40120BDE803
:10070000F081D8F8001021F003010843C8F8000078
:10071000FFF7D8FE064641F2883700BFD8F8000040
:10072000616800F00C00B0EB810F8DD0FFF7CAFEBE
:10073000801BB842F2D90320BDE8F08140F20800E6
:10074000C2F200000068704780B5FFF7F7FF43F67C
:100750000801C4F20201096842F20C02C1F38221CD
:10076000C0F60002515CC84080BD000080B5FFF7B4
:10077000E5FF43F60801C4F20201096842F20C02E7
:10078000C1F34231C0F60002515CC84080BD000098
:1007900010B543F60404C4F20204606800F00C01D2
:1007A00042F200400829C0F2F40007D0042918BF23
:1007B00010BD41F20020C0F27A0010BD216801F0A6
:1007C0003F02216823684902C3F3881105D4A1FBC5
:1007D00000010023FFF7FAFC06E041F20020C0F21E
:1007E0007A004843B0FBF2F021680222C1F30141D4
:1007F00002EB4101B0FBF1F010BD00002DE9F0412A
:1008000082B0002800F0A2800446007843F600067B
:10081000C007C4F2020643D0B06800F00C00042800
:1008200005D1306880033BD56068C8BB8EE0B068F6
:1008300000F00C00082802D170684002F1D465680D
:10084000B5F5A02F0AD0B5F5803F0BD0306820F465
:1008500080303060306820F4802006E0306840F45A
:1008600080203060306840F480303060FFF72AFE2E
:10087000002D054611D000BF3068800310D4FFF76B
:1008800021FE401B6428F7D922E100BFFFF71AFEC2
:10089000401B64284FF0030055D830688003F5D41E
:1008A000207880071AD5B06810F00C0F09D0B06816
:1008B00000F00C00082840F08A807068400200F1C7
:1008C00086803068800702D5E06801283ED1306814
:1008D000216920F0F80040EAC1003060207800076C
:1008E00038D4207840074CD4A5695DB3B06800F0D7
:1008F0000C00082840F09E80012D27D07068E16927
:1009000000F480028A4221D1216A00F03F028A422B
:100910001CD147F6C071626A0140B1EB821F15D14C
:10092000A26A0023CFF6FF7303EBC23200F440311A
:100930006FF30F02914209D1E16A00F07060B0EBF1
:10094000016F03D1002002B0BDE8F081012002B0A8
:10095000BDE8F0816069002840F20000C4F2472041
:1009600057D00121C0F8801EFFF7ACFD054600BF3F
:10097000706F8007B5D4FFF7A5FD401B0228F7D99B
:10098000A6E0306C10F080580AD100200190306C45
:1009900040F080503064306C00F08050019001983D
:1009A00047F20007C4F200073868C00524D438684D
:1009B00040F480703860FFF785FD05463868C00553
:1009C0001AD4FFF77FFD401B0228F7D980E0E068CA
:1009D000002851D00020C4F2472001210160FFF718
:1009E00071FD0546306880073FF571AFFFF76AFD7E
:1009F000401B0228F6D96BE0A568052D50D0012DCB
:100A000052D0306F20F001003067306F20F00400CA
:100A10004DE00021C0F8801EFFF754FD054600BFE1
:100A2000706F80077FF55DAFFFF74CFD401B02281C
:100A3000F6D94DE00027C4F2472700203866FFF7BB
:100A400041FD022D05460BD13068800158D5FFF7D6
:100A500039FD401B02284FF00300F5D973E700BFB2
:100A6000306880017FF56EAFFFF72CFD401B022838
:100A70004FF00300F4D966E70020C4F247200021BC
:100A80000160FFF71FFD0546306880077FF526AF40
:100A9000FFF718FD401B02284FF00300F4D952E77E
:100AA000306F40F004003067306F40F00100306775
:100AB000FFF708FD002D054641F2883714D000BF2E
:100AC000306F800713D4FFF7FDFC401BB842F7D905
:100AD000032002B0BDE8F081FFF7F4FC401BB842F0
:100AE0004FF003003FF62FAF306F8007F4D4B8F11A
:100AF000000F7FF4F9AE306C20F080503064F3E6E4
:100B000004F11C052FCD08430021CFF6FF7140EA08
:100B1000821001EBC3316FF30F0140EA0560084317
:100B2000706001203866FFF7CDFC04463068800114
:100B30003FF508AFFFF7C6FC001B02284FF003008B
:100B4000F4D900E770B538B10446406A30B10020EE
:100B5000206104F1140007E0012070BD6068B0F569
:100B6000827F03D004F11C00002101600026A662F0
:100B700094F8510020B9204684F8506000F03CF809
:100B8000022084F8510094E80F0001F48271056896
:100B900002F4044225F040050560114403F40062AC
:100BA0002369114403F002026369114403F0010256
:100BB000A369E569114403F40072114405F0380299
:100BC000256A114405F08002A56A114305F400521C
:100BD00011430160626A042101EA134102F010022C
:100BE00011444160C16921F40061C1610120666561
:100BF00084F85100304670BD80B586B043F20001E4
:100C00000068C4F20101002288420592CDE9032266
:100C10000292019201D006B080BD43F630000092EE
:100C2000C4F20200436943F480534361436903F40F
:100C300080530093009B0092036843F0020303601B
:100C4000006800F002000090009838200190022017
:100C5000CDE90202032004900520059001F55440DF
:100C600001A9FFF74FFB06B080BD000080B500F082
:100C70007BFC80BD80B500F059FC80BD80B5FFF7DE
:100C8000F5FF80BD704700007047000010B590F878
:100C90003C20012A4FF0020252D0012380F83C3060
:100CA00080F83D200268D2F804E0D2F808C00C6851
:100CB0002EF07003234341F2FF74C4F20004A242F9
:100CC00053600DDC40F2FF73C4F200039A4215DC5E
:100CD000B2F1804F29D040F20043C4F2000322E079
:100CE00040F2FF33C4F201039A4212DC41F60003E2
:100CF000C4F200039A4218D0002312E040F6000329
:100D0000C4F200039A4210D040F60043C4F200033C
:100D100009E044F20003C4F201039A4205D040F214
:100D20000043C4F201039A4204D149682CF08003C5
:100D3000194391600121002280F83D1080F83C2089
:100D4000104610BD002804BF0120704710B50446AE
:100D500090F83D0028B9002084F83C00204600F0BF
:100D60001FF8022084F83D002068211D00F078FC67
:100D7000012084F8460084F83E0084F83F0084F89F
:100D8000400084F8410084F8420084F8430084F86D
:100D9000440084F8450084F83D00002010BD0000A8
:100DA00080B582B0006840F60001C4F200018842BC
:100DB00001D002B080BD0020019043F64000C4F293
:100DC00002000168002241F004010160006809216D
:100DD00000F00400019001981E20FFF7EBFB1E209D
:100DE000FFF7E4FB02B080BD10B5044690F83C006C
:100DF00001284FF0020008BF10BD012284F83C20FA
:100E000084F83D0020684FF6777382689A438260C9
:100E10000A684F2A0FDC1F2A22DD202A23D0302A1D
:100E200021D0402A4DD14B68CA68194600F0BEFC5B
:100E3000206840213BE06F2A17DDB2F5005F20D02B
:100E4000B2F5805F2AD0702A3BD1D1E9012CCB6862
:100E5000614600F097FC2068816841F077011AE054
:100E60000AB1102A2DD1114621E0502A18D0602A4B
:100E700027D14B68CA68194600F0AAFC2068602197
:100E800015E0D1E9012CCB68614600F07BFC2068BD
:100E9000816841F48041816000200BE0002009E07E
:100EA0004B68CA68194600F081FC2068502100F0A8
:100EB00075FC0020012184F83D10002184F83C10CD
:100EC00010BD0120F6E700007047000010B5044691
:100ED00000680169890744BFC1685FEA817138D43D
:100EE00020680169490744BFC1685FEA41713CD489
:100EF00020680169090744BFC1685FEA017141D4F4
:100F000020680169C90644BFC1685FEAC16145D470
:100F100020680169C9071CBFC1685FEAC1714AD175
:100F200020680169090644BFC1685FEA016149D4CC
:100F300020680169490644BFC1685FEA416148D43D
:100F400020680169890644BFC1685FEA816147D4AE
:100F500010BD6FF0020101610121217780698007D6
:100F600045D02046FFF7B0FF47E06FF00401016174
:100F700002212177806910F4407F41D02046FFF79D
:100F8000A3FF43E06FF00801016104212177C069EC
:100F900080073ED02046FFF797FF40E06FF010013A
:100FA000016108212177C06910F4407F3AD02046C2
:100FB000FFF78AFF3CE06FF001010161204600F07D
:100FC0003FF8ADE76FF0800101612046FFF75AFE60
:100FD000AEE76FF040010161204600F033F8AFE763
:100FE0006FF0200101612046FFF74EFE10BD204644
:100FF00000F022F8204600F021F8002020776FE76B
:10100000204600F019F8204600F018F8002020775C
:101010006EE7204600F010F8204600F00FF80020A0
:1010200020776DE7204600F007F8204600F006F82C
:10103000002020776CE70000704700007047000038
:101040007047000070470000002804BF012070476F
:1010500010B5044690F83D0028B9002084F83C0003
:10106000204600F021F8242084F83D002068C16863
:1010700021F40051C160204600F0BCFB20680169EA
:1010800021F490410161416921F02A014161C16867
:1010900041F40051C16000202021206484F83D10FB
:1010A00084F83E1010BD000080B586B041F200010A
:1010B0000068C4F20101002288420592CDE90322B2
:1010C0000292019201D006B080BD43F6300000923A
:1010D000C4F20200436943F010034361436903F023
:1010E00010030093009B0092036843F00103036028
:1010F000006800F00100009000984FF4C06001907B
:101100000220CDE90202032004900720059001F59A
:10111000704001A9FFF7F6F806B080BDFEE70000B9
:1011200070B540F21800C2F20000841E002506A629
:1011300014F8060F06EBC0004168E8B28847013595
:10114000022DF5D170BD00BF000000002112000883
:1011500001000000291200080200000079110008B7
:10116000030000008112000804000000E5120008DE
:1011700005000000C9120008B0B540F2180104468D
:1011800000EB4000C2F2000101EB400515F8010F31
:1011900010B9204600F098F82878411CC8B20828F9
:1011A000297006D811F0010103D1204600F07EF825
:1011B000B0BD162804BF01202870B0BD2DE9F04352
:1011C00081B040F2180441F69D2041F6954140F26D
:1011D0000409C2F20004C0F60000C0F600014FF09E
:1011E0000008C2F20009012700250026C4E9030116
:1011F00039F816006119488081F804804F70002189
:10120000665500F0FFFB06350C2D06F10106EFD107
:1012100002202071FFF784FF01B0BDE8F0830000D9
:1012200080B500F051F880BD70B540F21805044655
:1012300000EB4000C2F2000505EB400616F8010F76
:10124000411CB6F80100317000F0E0FB012803D129
:10125000204600F039F870BD3078042802D12046CD
:1012600000F040F830780E2818BF70BD01203070B3
:10127000204600F029F82A6920460021904770BDD9
:1012800080B540F2180200EB4001C2F2000202EB0E
:10129000410111F8012F0132D3B2042B0A7038BF7B
:1012A00080BD01220A7000F001F880BD80B540F2D7
:1012B000180100EB4000C2F2000101EB4000408841
:1012C00000F0A8FB80BD000080B540F2180100EBE3
:1012D0004000C2F2000101EB40004088012100F013
:1012E0009DFB80BD80B540F2180100EB4000C2F2CA
:1012F000000101EB40004088002100F08FFB80BD21
:101300002DE9F04387B0002743F630000697CDE97A
:101310000477CDE902770197C4F20200016840F238
:10132000004441F0100101600168C4F2020401F0C0
:1013300010010191019901970168A4F5806541F0C0
:10134000800101600168012201F080010191019991
:10135000019701684FF0C00841F001010160016888
:101360004FF0010901F00101019101990197016814
:1013700041F0020101600068C02100F0020001900C
:1013800001982846FFF798F82046C0210022FFF771
:1013900093F8102002904FF4041002AECDE9030937
:1013A00004F540603146FEF7ADFF28463146CDE9F1
:1013B0000289CDE90477FEF7A5FF20463146CDE945
:1013C0000289CDE90477FEF79DFF4FF48070CDE9E7
:1013D0000207204631460497FEF794FF0A200821B1
:1013E0000022FFF7E7F80A20FFF7E0F807B0BDE8B2
:1013F000F083000080B540F63C0043F20001C2F2E9
:101400000000C4F201014FF4827200234FF4007C0B
:1014100080E80E000A21C0E90333C0E9053CC3613E
:10142000C0E90833C0E90A31FFF78CFB002818BF78
:10143000FEF74AFF80BD000080B586B040F69400FC
:101440000021C2F2000040F6000240F2E73CCDE984
:101450000411CDE90211CDE90011C4F20002A72365
:10146000C0E9021C01618021C0E900238161FFF70E
:1014700069FC002818BFFEF727FF4FF48050029048
:1014800040F69400C2F2000002A9FFF7ADFC00286C
:1014900018BFFEF719FF0020CDE9000040F69400C8
:1014A000C2F200006946FFF7F1FB002818BFFEF703
:1014B0000BFF06B080BD000080B540F6DC0041F2B5
:1014C0000001C2F20000C4F2010100234FF00C0C35
:1014D0004FF4E13280E80E00C0E90333C0E905C3F0
:1014E000C361FFF7B1FD002818BFFEF7EDFE80BD18
:1014F000FEE70000FEE7000000F0070080F00703B1
:10150000042B28BF04234FF0FF3C03380CFA03F3ED
:1015100038BF0020994381400CFA00F022EA000015
:10152000084370477047000070470000B0B50138AD
:101530000024B4EB106F1CBF0120B0BD4EF21005AB
:10154000CEF2000568604FF0FF300F2100F0DEF9A9
:101550000720AC6028602046B0BD000080B5FEF7D3
:10156000B7FFFFF78BFB80BD80B540F62410C2F2B9
:101570000000016819B101680139016002D000F072
:10158000FBFB80BD40F62010C2F20000012101707B
:1015900000F0F2FB80BD000070B592B006AC2046B2
:1015A0003021FEF74BFE002543F640000595CDE9BE
:1015B0000355CDE901550095C4F2020001680226E9
:1015C00041F080510160006800F080500090009868
:1015D00047F200000095C4F20000016841F4804128
:1015E00001600068A82100F480400090009801206C
:1015F00006904FF4803007904FF480000D90042047
:101600000E90119020460C96CDE90F16FFF7F6F8D4
:1016100088B90F20CDE901064FF4A05004904FF493
:101620008050059001A805210395FEF7D7FF0028FB
:1016300004BF12B070BDFEF747FE00004EF68850A2
:10164000CEF20000016841F47001016070470000B3
:1016500080B540F69400C2F20000FFF737FC80BD71
:1016600010B540F6FF3E0368C4F2000E40F2004C95
:101670007045C4F2010C0FDCB0F1804F19D040F27C
:101680000042C4F20002904213D040F60002C4F2BD
:10169000000290420DD010E040F60042C4F2000279
:1016A000904206D0604504D00022C4F2010290426C
:1016B00003D14A6823F07003134341F6FF72C4F26A
:1016C000000290420DDC70451FDCB0F1804F41D02C
:1016D00040F20042C4F2000290423BD040F60002C9
:1016E00021E043F6FF72C4F20102904220DC42F294
:1016F0000002C4F2000290422CD00022C4F2010287
:10170000904227D0604525D028E040F60042C4F240
:10171000000290421ED041F60002C4F20002904244
:1017200018D041F60042C4F20002904212D015E0F7
:1017300044F20002C4F2010290420BD044F60002CF
:10174000C4F20102904205D044F20042C4F2010208
:10175000904203D1CA6823F44073134323F08002FC
:101760004B69D1F800E08C681A430260C46240F40F
:101770008062C0F828E0624504BF09690163012165
:10178000416110BDD0F808C011432CF47F4C41EAF0
:10179000032141EA0C01816070470000826822F059
:1017A0007002114341F0070181607047D0F820C0FA
:1017B000036A23F001030362836923F0F00343EA21
:1017C00002122CF00A031943826101627047000083
:1017D000036A23F0100303628369D0F820C023F466
:1017E000704343EA02322CF0A00343EA0111826104
:1017F0000162704710B504460068D4E902C223694B
:10180000016921F4405111430161626943EA0C010D
:10181000E3691143C268194349F20C639A431143C7
:10182000C1604169A26921F4407141F20043114352
:1018300040F48062C4F201039A42416102D1FEF792
:1018400095FF01E0FEF780FFE16963681922B1F5B9
:10185000004FA0FB02011CD15A00DB0FFEF7B6FCC3
:1018600048F21F51C5F2EB11A0FB01235A096FF09A
:10187000630302FB0300322303EBC000A0FB010162
:101880004FF4F87000EA111000EB0210C1F342119E
:101890001AE09A009B0FFEF799FC48F21F51C5F21F
:1018A000EB11A0FB01235A096FF0630302FB030055
:1018B000322303EB0010A0FB0101F02000EA5110DD
:1018C00000EB0210C1F3431122680843906010BD81
:1018D00080B500F0DFFA80BDFEE70000002848BFB9
:1018E000704700F01F01012202FA01F14EF20012CE
:1018F0004009CEF2000242F8201070474EF60C501C
:10190000CEF200000068C0F3022070474EF6145378
:1019100000F00F02CEF2000309011A4400F1604307
:10192000B0F1FF3FC8BF03F564421170704700007B
:101930004EF60C51CEF200010A684FF6FF031A4032
:1019400060F30A2242F0806040F0FD70086070474A
:101950004EF60C50BFF34F8FCEF200000168042208
:1019600001F4E061C0F2FA5211430160BFF34F8FFE
:1019700000BFFDE780B500F00DFAFFF71FFC00F097
:101980002BFA002000F038F841F20000C4F2010008
:101990004FF4E13100220C2300F044F804A10020B0
:1019A0000B2200F04FF805A000F016FB80BD00BF31
:1019B0004142434445462E0D0A000000626F6172A9
:1019C00064207065726970686572616C7320617201
:1019D0006520696E697469616C697A65642E20623C
:1019E000792055415254310D00000000012080F350
:1019F0001388FFF7ADFF000080B500F0B5FA00F0E6
:101A0000D7F880BD80B500F053F880BD80B500F0F8
:101A100099F880BD80B500F0A7F880BD80B500F0D2
:101A2000B5F880BD80B592B0CDE901010020CDE9C7
:101A30000300CDE9070001A8CDE90523FFF704FB6A
:101A400012B080BD70B514460D4600F017F806467A
:101A5000C069002818BF804730462946224600F05A
:101A6000CDF970BD80B582B08DF807100DF107017A
:101A70000122FFF7E7FF02B080BD000040F64811E9
:101A8000C2F200012C2210FB0210704710B5044670
:101A9000C1B20020FFF7E6FF204610BD40F218015A
:101AA00000EB4000C2F2000101EB400000797047FA
:101AB00010B586B0002243F6300C0592CDE9032222
:101AC000CDE90122C4F2020C00F00F024FF0010E2A
:101AD000C0F30710DCF800300EFA02F20EFA00F440
:101AE000234392B2CCF80030CDE9012E0222042922
:101AF000049208D849B209A20DA352F8212053F844
:101B00002110CDE902210021C4F2020101EB802065
:101B100001A9FEF7F7FB06B010BD00BF01000000F1
:101B200000000000000000000000000011000000A4
:101B300000000000000000000100000002000000A2
:101B40000000000080B500F00F01012202FA01F14F
:101B50000022C0F30710C4F2020202EB802089B217
:101B6000FEF79CFC80BD000080B500F00F01012253
:101B700002FA01F10022C0F30710C4F2020202EBE4
:101B8000802089B2FEF790FC80BD000080B50A4637
:101B900000F00F01012303FA01F10023C0F3071045
:101BA000C4F2020303EB802089B2FEF785FC80BDFE
:101BB000F0B585B0002043F630010090C4F2020178
:101BC0000A6841F2000442F001020A600A68C4F2A5
:101BD000010402F001020092009A00900A6804F5E4
:101BE000704542F001020A600A686E4602F0010286
:101BF0000092009A00904869072740F01000486161
:101C00004869314600F01000009000984FF40070D1
:101C100000900220019001200290032003902846AA
:101C20000497FEF76FFB4FF4806000902846314622
:101C30000497FEF767FB252000210122FEF7BAFC7E
:101C40002520FEF7B3FC20464FF4E13100220C239F
:101C5000FFF7E8FE206820F040002060206820F0B8
:101C600020002060E06840F02000E06005B0F0BD9A
:101C7000FEF73CFCFFF790FCFFF742FBFFF7BAFBD7
:101C8000FFF71AFCFFF7D8FBFFF774FE00F01CF813
:101C9000FCE7000040F2180200EB4000C2F2000234
:101CA00002EB4000017170478160012181F31088CF
:101CB00040F22C01C2F200010968114401600021C8
:101CC00081F3108843607047F0B581B040F638006A
:101CD000C2F200000468F4B140F22C05C2F2000523
:101CE000012600270CE000BF86F310882868616891
:101CF0000844206087F31088A0688047E46854B1E6
:101D0000286821688842F9D360680028ECD1204611
:101D100000F018F8F0E701B0F0BD000040F638011F
:101D2000C2F200010A683AB1824204BF4FF0FF30AC
:101D30007047D268002AF7D10A680860C2600020A4
:101D40007047000040F63801C2F200010A68002A1C
:101D500008BF704740F63801C2F2000104E000BF3E
:101D600012680A600A682AB1824202F10C02F7D0B6
:101D70001146F7E770470000012080F3108840F219
:101D80002C00C2F20000016801310160002080F3E4
:101D90001088704740F20800C2F20000006844F664
:101DA000D351C1F26201A0FB01124DF68361C4F26E
:101DB0001B31A0FB0101900940F23002C2F2000287
:101DC0001060880C40F23401C2F2000108807047B4
:101DD00080B5FFF7A5F980BD10B540F62814C2F212
:101DE000000441F6D151C0F60001204632223223D0
:101DF000FFF75AFF2046FFF791FF10BD70B581B085
:101E0000002A40D000234FF0010C4FF0000E18E0E4
:101E100011F80E404568068A0EF1010EAC558CF3A0
:101E20001088048A013404828589A4B2AC4228BF98
:101E30000382848A964504F10104848283F3108826
:101E400021D08CF31088848AADF8024083F3108887
:101E500007E000BF8CF31088848AADF8024083F35A
:101E60001088BDF802508489A542D1D3BDF8025034
:101E7000A542EFD10468E5682D06EBD4E56845F08E
:101E80008005E560E6E70068C16841F08001C16057
:101E900001B070BD70B540F64814C2F2000420686D
:101EA0000568C6684169A90616D54068A168E28A36
:101EB0008854E18A4A1CE282E18992B28A4224BFB4
:101EC0000022E282628B8A4202D2618B01316183FD
:101ED000616A09B1C0B2884706EA050001061FD54C
:101EE000A18AA1B1012184F82810D4E90012638AE3
:101EF000D25C4A60618A01316182A28989B29142D1
:101F000024BF00216182A18A0139A18208E02168F1
:101F1000CA6822F08002CA60CA6842F04002CA6001
:101F2000400658BF70BDA08A88B1D4E90001628A1A
:101F3000895C4160608A01306082A18980B28842F8
:101F400024BF00206082A08A0138A08270BD216871
:101F5000206ACA68002822F04002CA6018BF804781
:101F6000002084F8280070BD40F64811C2F200013C
:101F70002C2210FB0213504341F20002C4F2010272
:101F80000A5040F23640C2F2000040F2360103F13E
:101F9000040CC2F200014FF004228CE8070000207C
:101FA00018825882D882188358839882C3E9070020
:101FB000586283F82800704702E008C8121F08C161
:101FC000002AFAD170477047002001E001C1121FBA
:101FD000002AFBD17047000010B5044601E0FFF76E
:101FE00055FD14F8010B04490028F8D1BDE8104054
:101FF0000A20FFF74BBD0000000000200000000099
:1020000000000000010203040607080900000000A8
:10201000010203043820000800000020180000001E
:10202000B81F00085020000818000020600D0000B4
:10203000C81F0008000000000000000006000700A4
:102040000024F40001000000100000000000000067
:040000050800019559
:00000001FF
