:020000040800F2
:10000000D0040020A9010008F50F0008050D000824
:10001000F10F0008B5020008F91100080000000007
:10002000000000000000000000000000291000088F
:10003000B902000800000000251000085D1000084B
:10004000C3010008C3010008C3010008C301000880
:10005000C3010008C3010008C3010008C301000870
:10006000C3010008C3010008C3010008C301000860
:10007000C3010008C3010008C3010008C301000850
:10008000C3010008C3010008C3010008000000000C
:10009000000000000000000000000000C301000894
:1000A000C3010008C3010008C3010008C301000820
:1000B000C3010008C3010008C3010008C301000810
:1000C000C3010008C3010008C3010008C301000800
:1000D000C3010008C3010008C301000800000000BC
:1000E000C3010008C3010008C301000800000000AC
:1000F000000000000000000000000000C301000834
:1001000000000000C3010008C3010008C30100088B
:1001100000000000000000000000000000000000DF
:10012000C3010008C3010008C3010008C30100089F
:10013000C3010008000000000000000000000000F3
:10014000000000000000000000000000C3010008E3
:10015000C3010008C3010008C3010008C30100086F
:10016000C3010008C30100080000000000000000F7
:10017000000000000000000000000000000000007F
:1001800000000000C30100080000000000000000A3
:10019000C3010008DFF80CD000F07AF800480047EF
:1001A00019140008D004002006488047064800477C
:1001B000FEE7FEE7FEE7FEE7FEE7FEE7FEE7FEE717
:1001C000FEE7FEE709110008950100082DE9F05F40
:1001D0000546002092469B468846064681464024B6
:1001E0001BE0284641464746224600F041F8534668
:1001F0005A46C01A914110D311461846224600F0C3
:1002000028F82D1A67EB01084F46224601200021ED
:1002100000F01FF817EB00094E41201EA4F1010465
:10022000DFDC484631462A464346BDE8F09FD2B25D
:1002300001E000F8012B491EFBD270470022F6E7CF
:1002400010B513460A4604461946FFF7F0FF20464C
:1002500010BD202A04DB203A00FA02F1002070478A
:100260009140C2F1200320FA03F3194390407047F4
:10027000202A04DB203A21FA02F00021704721FAFB
:1002800002F3D040C2F12002914008431946704762
:10029000064C074D06E0E06840F0010394E80700D3
:1002A00098471034AC42F6D3FFF778FFA414000847
:1002B000C4140008FEE7000070470000EFF3108050
:1002C00072B600BFFEE700002DE9F04F83B000F1E9
:1002D0003E4202F1FF724FEAB22241F6004701921C
:1002E000C4F2020708224FF0010E00254FF0000A69
:1002F0004FF00008B84208BF072200920AE000BF92
:1003000008F101080AF1040AB8F1100F05F102051D
:1003100000F0A2800C680EFA08FB14EA0B09EFD07B
:100320004C6804F0030CACF1010EBEF1010F11D8C2
:100330000322876802FA05F6CA68B743AA403A431F
:1003400082604268C4F3001722EA0B0207FA08F73A
:100350003A434260BCF1030F1CD0C26803238E688D
:1003600003FA05F7BA4306FA05F73A43BCF1020F60
:10037000C2600FD16FF0030202EA580202440AF091
:100380001C060F23176A03FA06F40B69A743B34050
:100390003B431362026803234F68AB409A4307F064
:1003A0000303AB401A4317F4403F4FF0010E0260C5
:1003B000A6D0002243F644030292C4F202031A6854
:1003C00043F6004442F480421A601A68C4F2010401
:1003D00002F480420292029A28F003024FF6084B80
:1003E0002244CFF6FF7B52F80B300AF00C070F26A1
:1003F000BE4023EA060C019B009E072B38BF1E4619
:1004000006FA07F747EA0C0342F80B3022684B68FC
:1004100042EA0907DE0358BF22EA0907276062683B
:100420009E0342EA090758BF22EA09076760A268EB
:10043000DE0242EA090758BF22EA0907A76043F62D
:100440000C47C4F201073A689B0242EA090358BF0D
:1004500022EA09033B6053E703B0BDE8F08F0000D8
:100460000069084018BF012070470000426902EA95
:100470000103914341EA034181617047002A08BFAB
:10048000090481617047000040F2CC00C2F2000014
:100490000068704740F20C0040F2CC01C2F200004C
:1004A000C2F2000100780A6810440860704700003A
:1004B00080B543F60040C4F20200016841F40071C7
:1004C0000160016841F480610160016841F480715C
:1004D0000160032000F05CF80F2000F005F800F048
:1004E0002BF8002080BD0000B0B540F20C02C2F233
:1004F000000240F208011278C2F200014FF47A7350
:100500000968B3FBF2F20446B1FBF2F1084600F0D1
:100510008BFB0F2C4FF001050CD858B94FF0FF3072
:1005200021460022002500F023F840F21000C2F21C
:10053000000004602846B0BD82B0002043F64001B0
:100540000190C4F202014A6842F480424A604A685B
:1005500002F480420192019A0090086840F08050B5
:100560000860086800F080500090009802B0704762
:1005700070B514460D46064600F040FE2946224658
:1005800000F03AFD0146304600F040FE70BD00002C
:1005900080B500F04DFE80BD2DE9F041002800F04F
:1005A0008B8043F60808C4F202080446D8F8F80322
:1005B0000D4600F00700884207D288F8F853D8F8B3
:1005C000F80300F00700A84276D12068810717D50C
:1005D000410705D5D8F8001041F4E051C8F80010E3
:1005E000010705D5D8F8001041F46041C8F80010A3
:1005F000D8F80010A26821F0F0011143C8F80010EB
:10060000C0073FD1D8F8F80300F00700A84207D987
:1006100088F8F853D8F8F80300F00700A8424BD147
:100620002068410707D5D8F80010E26821F4E051AE
:100630001143C8F80010000708D5D8F80000216958
:1006400020F4604040EAC100C8F8000000F07EF8E5
:10065000D8F8001041F28C42C1F30311C0F6000239
:10066000515C40F2080220FA01F140F21000C2F29F
:1006700000000068C2F200021160FFF735FF0020A1
:10068000BDE8F0816068811E022907D258F8081C75
:1006900089015CBF0120BDE8F08110E0012807D18D
:1006A00058F8081C89035CBF0120BDE8F08106E012
:1006B00058F8081C890702D40120BDE8F081D8F859
:1006C000001021F003010843C8F80000FFF7DCFE2A
:1006D000064641F2883700BFD8F80000616800F094
:1006E0000C00B0EB810F8DD0FFF7CEFE801BB8421F
:1006F000F2D90320BDE8F08140F20800C2F2000008
:100700000068704780B5FFF7F7FF43F60801C4F2B1
:100710000201096841F29C42C1F38221C0F6000245
:10072000515CC84080BD000080B5FFF7E5FF43F68F
:100730000801C4F20201096841F29C42C1F342314E
:10074000C0F60002515CC84080BD000010B543F601
:100750000404C4F20204606800F00C0142F200409C
:100760000829C0F2F40007D0042918BF10BD41F2D7
:100770000020C0F27A0010BD216801F03F0221681C
:1007800023684902C3F3881105D4A1FB00010023AB
:10079000FFF71CFD06E041F20020C0F27A0048435A
:1007A000B0FBF2F021680222C1F3014102EB4101EA
:1007B000B0FBF1F010BD00002DE9F04182B000283F
:1007C00000F0A2800446007843F60006C007C4F299
:1007D000020643D0B06800F00C00042805D1306850
:1007E00080033BD56068C8BB8EE0B06800F00C00A9
:1007F000082802D170684002F1D46568B5F5A02FD1
:100800000AD0B5F5803F0BD0306820F480303060DE
:10081000306820F4802006E0306840F480203060AA
:10082000306840F480303060FFF72EFE002D054622
:1008300011D000BF3068800310D4FFF725FE401BA5
:100840006428F7D922E100BFFFF71EFE401B642891
:100850004FF0030055D830688003F5D42078800726
:100860001AD5B06810F00C0F09D0B06800F00C0079
:10087000082840F08A807068400200F18680306865
:10088000800702D5E06801283ED13068216920F058
:10089000F80040EAC10030602078000738D42078A2
:1008A00040074CD4A5695DB3B06800F00C0008287F
:1008B00040F09E80012D27D07068E16900F480022D
:1008C0008A4221D1216A00F03F028A421CD147F6B8
:1008D000C071626A0140B1EB821F15D1A26A002388
:1008E000CFF6FF7303EBC23200F440316FF30F0217
:1008F000914209D1E16A00F07060B0EB016F03D161
:10090000002002B0BDE8F081012002B0BDE8F08116
:100910006069002840F20000C4F2472057D001214E
:10092000C0F8801EFFF7B0FD054600BF706F80075E
:10093000B5D4FFF7A9FD401B0228F7D9A6E0306C1B
:1009400010F080580AD100200190306C40F08050A7
:100950003064306C00F080500190019847F200073D
:10096000C4F200073868C00524D4386840F48070A9
:100970003860FFF789FD05463868C0051AD4FFF7CF
:1009800083FD401B0228F7D980E0E068002851D0A1
:100990000020C4F2472001210160FFF775FD0546E4
:1009A000306880073FF571AFFFF76EFD401B0228EE
:1009B000F6D96BE0A568052D50D0012D52D0306FCF
:1009C00020F001003067306F20F004004DE000217E
:1009D000C0F8801EFFF758FD054600BF706F800706
:1009E0007FF55DAFFFF750FD401B0228F6D94DE0C3
:1009F0000027C4F2472700203866FFF745FD022D87
:100A000005460BD13068800158D5FFF73DFD401BEE
:100A100002284FF00300F5D973E700BF306880016A
:100A20007FF56EAFFFF730FD401B02284FF003004B
:100A3000F4D966E70020C4F2472000210160FFF7E7
:100A400023FD0546306880077FF526AFFFF71CFDC4
:100A5000401B02284FF00300F4D952E7306F40F0FA
:100A600004003067306F40F001003067FFF70CFD85
:100A7000002D054641F2883714D000BF306F800743
:100A800013D4FFF701FD401BB842F7D9032002B091
:100A9000BDE8F081FFF7F8FC401BB8424FF00300BF
:100AA0003FF62FAF306F8007F4D4B8F1000F7FF41A
:100AB000F9AE306C20F080503064F3E604F11C0590
:100AC0002FCD08430021CFF6FF7140EA821001EBE1
:100AD000C3316FF30F0140EA0560084370600120E5
:100AE0003866FFF7D1FC0446306880013FF508AF57
:100AF000FFF7CAFC001B02284FF00300F4D900E7FF
:100B000070B538B10446406A30B10020206104F16C
:100B1000140007E0012070BD6068B0F5827F03D04B
:100B200004F11C00002101600026A66294F8510027
:100B300020B9204684F8506000F03CF8022084F888
:100B4000510094E80F0001F48271056802F4044238
:100B500025F040050560114403F400622369114447
:100B600003F002026369114403F00102A369E5691D
:100B7000114403F40072114405F03802256A11444F
:100B800005F08002A56A114305F40052114301608B
:100B9000626A042101EA134102F01002114441602B
:100BA000C16921F40061C1610120666584F85100CA
:100BB000304670BD80B586B043F200010068C4F2D3
:100BC0000101002288420592CDE90322029201929E
:100BD00001D006B080BD43F630000092C4F202009E
:100BE000436943F480534361436903F480530093A2
:100BF000009B0092036843F002030360006800F06A
:100C0000020000900098382001900220CDE90202F5
:100C1000032004900520059001F5544001A9FFF739
:100C200053FB06B080BD000080B500F0FFF980BD29
:100C3000002804BF0120704710B5044690F83D001D
:100C400028B9002084F83C00204600F021F8242038
:100C500084F83D002068C16821F40051C16020463D
:100C600000F05CFA2068016921F49041016141695A
:100C700021F02A014161C16841F40051C1600020A6
:100C80002021206484F83D1084F83E1010BD00003F
:100C900080B586B041F200010068C4F20101002273
:100CA00088420592CDE903220292019201D006B05A
:100CB00080BD43F630000092C4F20200436943F065
:100CC00010034361436903F010030093009B0092FB
:100CD000036843F001030360006800F00100009026
:100CE00000984FF4C06001900220CDE90202032079
:100CF00004900720059001F5704001A9FFF7E4FA80
:100D000006B080BDFEE7000080B540F21800C2F2D8
:100D10000000007903A101EBC00041680020884772
:100D200080BD00BF00000000DD0D000801000000D4
:100D3000E50D000802000000550D0008030000004A
:100D40003D0E000804000000A10E00080500000090
:100D5000850E0008B0B540F21801044600EB4000D3
:100D6000C2F2000101EB400515F8010F10B9204651
:100D700000F088F82878411CC8B20828297006D8E5
:100D800011F0010103D1204600F06EF8B0BD162825
:100D900004BF01202870B0BD10B540F2180441F224
:100DA0000530C2F20004C0F6000041F23541C0F641
:100DB0000001A06040F20400C2F20000E1604FF4C4
:100DC000807100882180002121710021608000F065
:100DD00061FA02202071FFF797FF10BD80B500F087
:100DE00051F880BD70B540F21805044600EB400094
:100DF000C2F2000505EB400616F8010F411CB6F8DB
:100E00000100317000F04AFA012803D1204600F0B9
:100E100039F870BD3078042802D1204600F040F83F
:100E200030780E2818BF70BD01203070204600F0C9
:100E300029F8EA6820460021904770BD80B540F24D
:100E4000180200EB4001C2F2000202EB410111F86E
:100E5000012F0132D3B2042B0A7038BF80BD0122AA
:100E60000A7000F001F880BD80B540F2180100EB77
:100E70004000C2F2000101EB4000408800F012FA8D
:100E800080BD000080B540F2180100EB4000C2F2C6
:100E9000000101EB40004088012100F007FA80BD0D
:100EA00080B540F2180100EB4000C2F2000101EBF6
:100EB00040004088002100F0F9F980BD2DE9F043A1
:100EC00087B0002743F630000697CDE90477CDE9D7
:100ED00002770197C4F20200016840F2004441F039
:100EE000800101600168C4F2020401F080010191F7
:100EF000019901970168A4F5806541F00101016045
:100F00000168012201F00101019101990197016835
:100F10004FF0C00841F0020101600068C02100F0FC
:100F200002000190019828464FF00109FFF7A6FA48
:100F30002046C0210022FFF7A1FA02AE2846314622
:100F4000CDE90289CDE90477FFF7BEF920463146A5
:100F5000CDE90289CDE90477FFF7B6F94FF4807047
:100F6000CDE90207204631460497FFF7ADF907B0F7
:100F7000BDE8F08380B540F2300043F20001C2F2D8
:100F80000000C4F201014FF4827200234FF4007C90
:100F900080E80E000A21C0E90333C0E9053CC361C3
:100FA000C0E90833C0E90A31FFF7AAFD002818BFDD
:100FB000FFF784F980BD000080B540F2880041F25F
:100FC0000001C2F20000C4F2010100234FF00C0C3A
:100FD0004FF4E13280E80E00C0E90333C0E905C3F5
:100FE000C361FFF725FE002818BFFFF767F980BD32
:100FF000FEE70000FEE7000000F0070080F00703B6
:10100000042B28BF04234FF0FF3C03380CFA03F3F2
:1010100038BF0020994381400CFA00F022EA00001A
:10102000084370477047000070470000B0B50138B2
:101030000024B4EB106F1CBF0120B0BD4EF21005B0
:10104000CEF2000568604FF0FF300F2100F0DEF8AF
:101050000720AC6028602046B0BD000080B5FFF7D7
:1010600019FA80BD70B592B006AC20463021FFF76A
:10107000E5F8002543F640000595CDE90355CDE997
:1010800001550095C4F202000168022641F080512A
:101090000160006800F080500090009847F2000066
:1010A0000095C4F20000016841F4804101600068CD
:1010B000A82100F4804000900098012006904FF491
:1010C000803007904FF480000D9004200E90119016
:1010D00020460C96CDE90F16FFF76EFB88B90F205E
:1010E000CDE901064FF4A05004904FF480500590D4
:1010F00001A805210395FFF74FFA002804BF12B09D
:1011000070BDFFF7DBF800004EF68850CEF200000D
:10111000016841F4700101607047000010B5044699
:101120000068D4E902C22369016921F440511143E6
:101130000161626943EA0C01E3691143C268194322
:1011400049F20C639A431143C1604169A26921F4D9
:10115000407141F20043114340F48062C4F2010344
:101160009A42416102D1FFF7DFFA01E0FFF7CAFAC4
:10117000E16963681922B1F5004FA0FB02011CD19F
:101180005A00DB0FFFF722F848F21F51C5F2EB11AE
:10119000A0FB01235A096FF0630302FB0300322313
:1011A00003EBC000A0FB01014FF4F87000EA11103E
:1011B00000EB0210C1F342111AE09A009B0FFFF7F7
:1011C00005F848F21F51C5F2EB11A0FB01235A09A3
:1011D0006FF0630302FB0300322303EB0010A0FB5C
:1011E0000101F02000EA511000EB0210C1F343119D
:1011F00022680843906010BDFEE700004EF60C50D8
:10120000CEF200000068C0F3022070474EF614537F
:1012100000F00F02CEF2000309011A4400F160430E
:10122000B0F1FF3FC8BF03F5644211707047000082
:101230004EF60C51CEF200010A684FF6FF031A4039
:1012400060F30A2242F0806040F0FD700860704751
:1012500080B500F02FF8FFF79FFD02A000F004F921
:1012600080BD00BF626F61726420706572697068D2
:101270006572616C732061726520696E6974696161
:101280006C697A65642E2062792055415254310D83
:101290000000000080B500F03FF880BD80B500F090
:1012A00085F880BD80B500F093F880BD80B500F072
:1012B000A1F880BD40F20800C2F20000006844F6C8
:1012C000D351C1F26201A0FB01124DF68361C4F259
:1012D0001B31A0FB0101900940F22802C2F200027A
:1012E0001060880C40F22C01C2F2000108807047A7
:1012F00041F20001C4F201010A685206FCD5C2B2F3
:101300004A60704740F2180100EB4000C2F2000151
:1013100001EB40000079704710B586B0002243F61B
:10132000300C0592CDE90322CDE90122C4F2020C72
:1013300000F00F024FF0010EC0F30710DCF8003090
:101340000EFA02F20EFA00F4234392B2CCF8003007
:10135000CDE9012E02220429049208D849B209A23B
:101360000DA352F8212053F82110CDE902210021CC
:10137000C4F2020101EB802001A9FEF7A5FF06B02F
:1013800010BD00BF010000000000000000000000D0
:10139000000000001100000000000000000000003C
:1013A00001000000020000000000000080B500F015
:1013B0000F01012202FA01F10022C0F30710C4F26A
:1013C000020202EB802089B2FFF74AF880BD0000DC
:1013D00080B500F00F01012202FA01F10022C0F3F2
:1013E0000710C4F2020202EB802089B2FFF73EF838
:1013F00080BD000080B50A4600F00F01012303FA0A
:1014000001F10023C0F30710C4F2020303EB8020B4
:1014100089B2FFF733F880BDFFF74AF8FFF722FEE5
:10142000FFF74CFDFFF7A6FDFFF7C6FDFFF710FF26
:10143000FEE7000040F2180200EB4000C2F200029A
:1014400002EB40000171704702E008C8121F08C19A
:10145000002AFAD170477047002001E001C1121F35
:10146000002AFBD17047000010B5044601E0FFF7E9
:101470003FFF14F8010B04490028F8D1BDE81040E3
:101480000A20FFF735BF0000000000200000000028
:101490000000000001020304060708090000000024
:1014A00001020304C8140008000000201800000016
:1014B00048140008E014000818000020B8040000D8
:1014C000581400080000000000000000590000004F
:1014D0000024F400010000001000000000000000E3
:040000050800019559
:00000001FF
