:020000040800F2
:10000000B8070020A9010008D11B0008D917000873
:10001000CD1B000865070008E9200008000000006B
:10002000000000000000000000000000391D000872
:100030006907000800000000011C00086D1D000891
:10004000C3010008C3010008C3010008C301000880
:10005000C3010008C3010008C3010008C301000870
:10006000C3010008C30100086D070008C3010008B0
:10007000C3010008C3010008C3010008C301000850
:10008000C3010008C3010008C3010008000000000C
:1000900000000000000000000000000079070008D8
:1000A000C3010008C3010008C3010008C301000820
:1000B000C3010008C3010008611E0008C301000855
:1000C000C3010008C3010008C3010008C301000800
:1000D000C3010008E1200008C3010008000000007F
:1000E000C3010008C3010008C301000800000000AC
:1000F000000000000000000000000000C301000834
:1001000000000000C3010008C3010008C30100088B
:1001100000000000000000000000000000000000DF
:10012000C3010008C3010008C3010008C30100089F
:10013000C3010008000000000000000000000000F3
:10014000000000000000000000000000C3010008E3
:10015000C3010008C3010008C3010008C30100086F
:10016000C3010008C30100080000000000000000F7
:10017000000000000000000000000000000000007F
:1001800000000000C30100080000000000000000A3
:10019000C3010008DFF80CD000F062FA0048004705
:1001A00019270008B807002006488047064800477E
:1001B000FEE7FEE7FEE7FEE7FEE7FEE7FEE7FEE717
:1001C000FEE7FEE74D1E0008950100082DE9F05FEF
:1001D0000546002092469B468846064681464024B6
:1001E0001BE0284641464746224600F071F8534638
:1001F0005A46C01A914110D311461846224600F0C3
:1002000058F82D1A67EB01084F46224601200021BD
:1002100000F04FF817EB00094E41201EA4F1010435
:10022000DFDC484631462A464346BDE8F09FD2B25D
:1002300001E000F8012B491EFBD270470022F6E7CF
:1002400010B513460A4604461946FFF7F0FF20464C
:1002500010BD421C10F8011B0029FBD1801A704709
:1002600000F0004230F000400AD0C10D01F560718D
:10027000C0F3160042EA0151C2084007114370471B
:1002800000200146704730B50B4601460020202271
:10029000012409E021FA02F59D4205D303FA02F593
:1002A000491B04FA02F52844151EA2F10102F1DCF3
:1002B00030BD202A04DB203A00FA02F1002070470A
:1002C0009140C2F1200320FA03F319439040704794
:1002D000202A04DB203A21FA02F00021704721FA9B
:1002E00002F3D040C2F12002914008431946704702
:1002F0002DE9FE4F804681EA0300C00F0C460090B6
:1003000021F0004123F00045B8EB0200A94105D2DD
:100310004046214690461C460B46024623F00040CC
:10032000104347D0270DC7F30A00C3F30A510290C8
:10033000401A019040286BDAC3F3130040F4801B8D
:100340000098924620B10023D2EB030A63EB0B0B1B
:1003500001985946C0F140025046FFF7AAFF0646F1
:100360000D4650465946019A00F08CF910EB0800F2
:100370006141002487EA115284EAE7731A4340D0AE
:10038000009A62B3019A012A4FEA075215DC001B5A
:1003900061EB02014FF0004202EA0752CDE9004250
:1003A000001C41F5801132462B4600F08CF903B059
:1003B000BDE8F08F40462146F9E7001B61EB0201E2
:1003C000001C41F5801300185B412018A2F50017AE
:1003D00047EB030140EAD570B6196D4111E06D0895
:1003E0004FEA360645EAC0754FEA0752001B61EB3B
:1003F0000201001C41F5801149084FEA3000001944
:10040000514132462B4603B0BDE8F04F00F04CB9E5
:100410000098012240000023D0EB020263EBE0735E
:10042000009821464FEAE074B8EB000061EB04014C
:10043000E9E783F000435BE781F0004158E72DE9ED
:10044000FE4F81EA030404F0004421F000410094CF
:100450004FF0000B23F0004350EA01045ED052EA53
:1004600003045BD0C3F30A54C1F30A552C44A4F22D
:10047000F3340194A0FB0254C1F3130141F4801141
:10048000C3F3130343F4801301FB024400FB034E48
:10049000840A970A44EA815447EA8357A4FB076811
:1004A00002958D0A05FB07854FEA932C04FB0C543B
:1004B0002705029D4FEA065847EA1637B5EB0805AF
:1004C0006EEB070C870E920E47EA811742EA831201
:1004D000A7FB0201B6EB0B0164EB00042B0D43EA12
:1004E0000C335E1844EB1C50DA465146E7FB020120
:1004F000C5F313044FEA0B3343EA14534FEA0432B3
:10050000019C43EA0603A4F10C040294009CCDE98B
:1005100000B400F0D8F803B0BDE8F08F0020014629
:10052000F9E72DE9F04D81EA030404F0004B21F0D6
:10053000004514464FF0000A23F0004150EA05023E
:1005400020D054EA01021DD0C5F30A570246C5F374
:100550001303C1F31300C1F30A5640F4801543F4AA
:100560008013A7EB0608101BD64608F2FD3873EB84
:10057000050002D308F1010801E092185B41B8F1CF
:10058000000F03DA00200146BDE8F08D00204FF493
:100590008011064684460EE0171B73EB050705D352
:1005A000121B63EB050306434CEA010C49084FEAB2
:1005B000300092185B4150EA0107EDD152EA030086
:1005C00012D082EA040083EA0501084305D0101B1B
:1005D000AB4106D20122002306E000224FF0004387
:1005E00002E06FF0010253101AEB06004CEB0851C9
:1005F00010EB0A0041EB0B01BDE8F04D00F054B8E0
:10060000C1F30A52C1F3130140F2FF3341F48011E8
:100610009A4202DA00200146704740F233439A4280
:10062000A2F2334202DC5242FFF752BEFFF741BE54
:1006300030B5041E71F1000404DB4FF00044404269
:1006400064EB0101141E73F1000405DB1C464FF03E
:100650000043524263EB0403994208BF904230BD0D
:10066000064C074D06E0E06840F0010394E80700FF
:1006700098471034AC42F6D3FFF790FD803B00085A
:10068000A03B0008202A06DBCB17203A41FA02F0F3
:1006900043EAE07306E041FA02F3D040C2F12002DF
:1006A000914008431946704710B5141E73F10004B9
:1006B00008DA401C41F1000192185B411A4301D154
:1006C00020F0010010BD2DE9F04D92469B4611B17E
:1006D000B1FA81F202E0B0FA80F220329046FFF7E0
:1006E000E8FD04460F4640EA0A0041EA0B01534682
:1006F0005A46084313D0114653EA010019D0C8F1F5
:1007000040025046FFF7E4FD05460E465046594666
:100710004246FFF7CEFD084305D0012004E0204605
:100720003946BDE8F08D0020054346EAE0762C43CB
:1007300037430A986305E40AA0EB08000022FD0A8B
:1007400044EA47540A3002D500200146E9E7010592
:1007500010196941DDE9084500196941BDE8F04D0E
:10076000A2E70000FEE700007047000080B51020FF
:1007700000F026F880BD000080B54FF4807000F0D6
:100780001FF880BDEFF3108072B600BFFEE70000D7
:10079000102818BF704710B540F22C04C2F20004B4
:1007A0002078032805D39FED050A02F09DF800206C
:1007B00000E001302070BDE810407047CDCCCC3D4A
:1007C00080B543F61441C4F201010A68024208BF31
:1007D00080BD0860FFF7DCFF80BD00002DE9F04F11
:1007E00083B000F13E4202F1FF724FEAB22241F6BD
:1007F00000470192C4F2020708224FF0010E0025C3
:100800004FF0000A4FF00008B84208BF07220092DC
:100810000AE000BF08F101080AF1040AB8F1100F5C
:1008200005F1020500F0A2800C680EFA08FB14EA3C
:100830000B09EFD04C6804F0030CACF1010EBEF1D3
:10084000010F11D80322876802FA05F6CA68B74378
:10085000AA403A4382604268C4F3001722EA0B02BE
:1008600007FA08F73A434260BCF1030F1CD0C26894
:1008700003238E6803FA05F7BA4306FA05F73A43ED
:10088000BCF1020FC2600FD16FF0030202EA5802FE
:1008900002440AF01C060F23176A03FA06F40B69D8
:1008A000A743B3403B431362026803234F68AB4046
:1008B0009A4307F00303AB401A4317F4403F4FF04D
:1008C000010E0260A6D0002243F644030292C4F255
:1008D00002031A6843F6004442F480421A601A6820
:1008E000C4F2010402F480420292029A28F0030248
:1008F0004FF6084B2244CFF6FF7B52F80B300AF03C
:100900000C070F26BE4023EA060C019B009E072B16
:1009100038BF1E4606FA07F747EA0C0342F80B30C9
:1009200022684B6842EA0907DE0358BF22EA09073A
:10093000276062689E0342EA090758BF22EA090756
:100940006760A268DE0242EA090758BF22EA090787
:10095000A76043F60C47C4F201073A689B0242EADB
:10096000090358BF22EA09033B6053E703B0BDE81F
:10097000F08F00000069084018BF01207047000098
:10098000426902EA0103914341EA034181617047F0
:10099000002A08BF090481617047000040F2B430AA
:1009A000C2F200000068704740F20F0040F2B4311C
:1009B000C2F20000C2F2000100780A681044086028
:1009C0007047000080B543F60040C4F202000168A1
:1009D00041F400710160016841F4806101600168C7
:1009E00041F480710160032000F060F80F2000F0F6
:1009F00005F800F02BF8002080BD0000B0B540F2F3
:100A00000F02C2F2000240F208011278C2F20001A5
:100A10004FF47A730968B3FBF2F20446B1FBF2F1CA
:100A2000084600F085FC0F2C4FF001050CD858B992
:100A30004FF0FF3021460022002500F027F840F259
:100A40001000C2F2000004602846B0BD82B0002051
:100A500043F640010190C4F202014A6842F4804228
:100A60004A604A6802F480420192019A0090086844
:100A700040F080500860086800F0805000900098B6
:100A800002B0704780B501F031FB80BD70B51446EF
:100A90000D46064601F03AFB2946224601F09AF837
:100AA0000146304601F03AFB70BD000080B501F010
:100AB00047FB80BD2DE9F041002800F08B8043F614
:100AC0000808C4F202080446D8F8F8030D4600F0FE
:100AD0000700884207D288F8F853D8F8F80300F0E6
:100AE0000700A84276D12068810717D5410705D5B0
:100AF000D8F8001041F4E051C8F80010010705D5FE
:100B0000D8F8001041F46041C8F80010D8F800107F
:100B1000A26821F0F0011143C8F80010C0073FD1CE
:100B2000D8F8F80300F00700A84207D988F8F8536E
:100B3000D8F8F80300F00700A8424BD1206841071D
:100B400007D5D8F80010E26821F4E0511143C8F845
:100B50000010000708D5D8F80000216920F4604093
:100B600040EAC100C8F8000000F07EF8D8F8001094
:100B700043F6E822C1F30311C0F60002515C40F2D3
:100B8000080220FA01F140F21000C2F200000068F1
:100B9000C2F200021160FFF731FF0020BDE8F081D2
:100BA0006068811E022907D258F8081C89015CBFC1
:100BB0000120BDE8F08110E0012807D158F8081C99
:100BC00089035CBF0120BDE8F08106E058F8081CED
:100BD000890702D40120BDE8F081D8F8001021F087
:100BE00003010843C8F80000FFF7D8FE064641F2AB
:100BF000883700BFD8F80000616800F00C00B0EB47
:100C0000810F8DD0FFF7CAFE801BB842F2D90320B6
:100C1000BDE8F08140F20800C2F2000000687047B1
:100C200080B5FFF7F7FF43F60801C4F20201096837
:100C300043F6F822C1F38221C0F60002515CC8409D
:100C400080BD000080B5FFF7E5FF43F60801C4F260
:100C50000201096843F6F822C1F34231C0F60002EE
:100C6000515CC84080BD000010B543F60404C4F2D6
:100C70000204606800F00C0142F200400829C0F252
:100C8000F40007D0042918BF10BD41F20020C0F2C3
:100C90007A0010BD216801F03F02216823684902F3
:100CA000C3F3881105D4A1FB00010023FFF78EFADE
:100CB00006E041F20020C0F27A004843B0FBF2F0B7
:100CC00021680222C1F3014102EB4101B0FBF1F0C6
:100CD00010BD00002DE9F04182B0002800F0A28094
:100CE0000446007843F60006C007C4F2020643D06B
:100CF000B06800F00C00042805D1306880033BD5B3
:100D00006068C8BB8EE0B06800F00C00082802D113
:100D100070684002F1D46568B5F5A02F0AD0B5F52A
:100D2000803F0BD0306820F480303060306820F491
:100D3000802006E0306840F480203060306840F465
:100D400080303060FFF72AFE002D054611D000BF2D
:100D50003068800310D4FFF721FE401B6428F7D9C8
:100D600022E100BFFFF71AFE401B64284FF003008A
:100D700055D830688003F5D4207880071AD5B0683C
:100D800010F00C0F09D0B06800F00C00082840F0FB
:100D90008A807068400200F186803068800702D542
:100DA000E06801283ED13068216920F0F80040EA6F
:100DB000C10030602078000738D4207840074CD438
:100DC000A5695DB3B06800F00C00082840F09E8073
:100DD000012D27D07068E16900F480028A4221D198
:100DE000216A00F03F028A421CD147F6C071626A54
:100DF0000140B1EB821F15D1A26A0023CFF6FF7329
:100E000003EBC23200F440316FF30F02914209D17B
:100E1000E16A00F07060B0EB016F03D1002002B016
:100E2000BDE8F081012002B0BDE8F08160690028D2
:100E300040F20000C4F2472057D00121C0F8801EC4
:100E4000FFF7ACFD054600BF706F8007B5D4FFF714
:100E5000A5FD401B0228F7D9A6E0306C10F08058A1
:100E60000AD100200190306C40F080503064306C2A
:100E700000F080500190019847F20007C4F200078B
:100E80003868C00524D4386840F480703860FFF7B3
:100E900085FD05463868C0051AD4FFF77FFD401B65
:100EA0000228F7D980E0E068002851D00020C4F281
:100EB000472001210160FFF771FD0546306880077A
:100EC0003FF571AFFFF76AFD401B0228F6D96BE0D2
:100ED000A568052D50D0012D52D0306F20F00100B3
:100EE0003067306F20F004004DE00021C0F8801E14
:100EF000FFF754FD054600BF706F80077FF55DAFBB
:100F0000FFF74CFD401B0228F6D94DE00027C4F244
:100F1000472700203866FFF741FD022D05460BD11B
:100F20003068800158D5FFF739FD401B02284FF08B
:100F30000300F5D973E700BF306880017FF56EAF1D
:100F4000FFF72CFD401B02284FF00300F4D966E7A1
:100F50000020C4F2472000210160FFF71FFD054675
:100F6000306880077FF526AFFFF718FD401B022889
:100F70004FF00300F4D952E7306F40F004003067BF
:100F8000306F40F001003067FFF708FD002D054687
:100F900041F2883714D000BF306F800713D4FFF7B9
:100FA000FDFC401BB842F7D9032002B0BDE8F08138
:100FB000FFF7F4FC401BB8424FF003003FF62FAFA1
:100FC000306F8007F4D4B8F1000F7FF4F9AE306CC5
:100FD00020F080503064F3E604F11C052FCD084367
:100FE0000021CFF6FF7140EA821001EBC3316FF3AD
:100FF0000F0140EA05600843706001203866FFF782
:10100000CDFC0446306880013FF508AFFFF7C6FC11
:10101000001B02284FF00300F4D900E770B538B187
:101020000446406A30B10020206104F1140007E05A
:10103000012070BD6068B0F5827F03D004F11C0010
:10104000002101600026A66294F8510020B92046D4
:1010500084F8506000F03CF8022084F8510094E8D5
:101060000F0001F48271056802F4044225F0400586
:101070000560114403F400622369114403F0020285
:101080006369114403F00102A369E569114403F4A3
:101090000072114405F03802256A114405F08002FF
:1010A000A56A114305F4005211430160626A0421EC
:1010B00001EA134102F0100211444160C16921F4B8
:1010C0000061C1610120666584F85100304670BD41
:1010D00080B586B043F200010068C4F2010100222D
:1010E00088420592CDE903220292019201D006B016
:1010F00080BD43F630000092C4F20200436943F41D
:1011000080534361436903F480530093009B009232
:10111000036843F002030360006800F002000090DF
:101120000098382001900220CDE9020203200490AB
:101130000520059001F5544001A9FFF74FFB06B0CB
:1011400080BD00002DE9F04381B0044690F85000C6
:10115000012803D1022001B0BDE8F08301201E4622
:1011600015460F4684F85000FFF718FC94F851100C
:10117000814601290CD06068B0F5827F76D10429C0
:101180004FF0020040F0C680A168002940F0C28004
:10119000002F4FF0010018BF002D00F0BB80002E83
:1011A00000F0B88094F85100002104281CBF0520ED
:1011B00084F851006165A563E687A6872763E68604
:1011C0002068A686216461640168490603D4016829
:1011D00041F0400101606168731EE268B1FA81F17B
:1011E000B3FA83F3DDF8208049095B09B2F5006F9B
:1011F00041EA03013CD139B1216B0988C160B81CB7
:101200002063E08E0138E086012608F1010500BF69
:10121000E08E10B9E08F002866D0206881688907C9
:101220000CD5E18E012E09D141B1216B002631F898
:10123000022BC2602163E18E0139E1868168C90712
:101240000AD0E18F41B1C068A16B012621F8020BE1
:10125000A163E08F0138E087FFF7A0FB002DD7D016
:10126000A0EB09004045D3D3032053E0022051E016
:1012700039B139780173206B01302063E08E013879
:10128000E086012608F10105E08E08B9E08F58B329
:101290002068816889070DD5E18E012E0AD149B1F8
:1012A000216B002609780173206B01302063E08EEA
:1012B0000138E08620688168C9070BD0E18F49B109
:1012C000C068A16B01260870A06B0130A063E08F9D
:1012D0000138E087FFF762FB002DD5D0A0EB0900B5
:1012E0004045D1D3032015E0204641464A4600F050
:1012F00089FC18B12020606501200BE0A06800285F
:101300004FF0000006D100902168CA6800928968F9
:1013100000910099012184F85110002184F85010A7
:1013200001B0BDE8F083000080B500F025FD80BD70
:1013300080B500F003FD80BD80B5FFF7F5FF80BDEF
:10134000704700007047000010B590F83C20012A5B
:101350004FF0020252D0012380F83C3080F83D204B
:101360000268D2F804E0D2F808C00C682EF07003CE
:10137000234341F2FF74C4F20004A24253600DDC27
:1013800040F2FF73C4F200039A4215DCB2F1804FC1
:1013900029D040F20043C4F2000322E040F2FF33C0
:1013A000C4F201039A4212DC41F60003C4F20003C6
:1013B0009A4218D0002312E040F60003C4F2000362
:1013C0009A4210D040F60043C4F2000309E044F210
:1013D0000003C4F201039A4205D040F20043C4F274
:1013E00001039A4204D149682CF0800319439160AB
:1013F0000121002280F83D1080F83C20104610BDED
:10140000002804BF0120704710B5044690F83D0045
:1014100028B9002084F83C00204600F01FF8022084
:1014200084F83D002068211D00F022FD012084F891
:10143000460084F83E0084F83F0084F8400084F8B9
:10144000410084F8420084F8430084F8440084F8A2
:10145000450084F83D00002010BD000080B582B03A
:10146000006840F60001C4F20001884201D002B0D9
:1014700080BD0020019043F64000C4F202000168E4
:10148000002241F0040101600068092100F004001D
:10149000019001981E20FFF7F9FA1E20FFF7F2FADB
:1014A00002B080BD10B5044690F83C0001284FF012
:1014B000020008BF10BD012284F83C2084F83D00E2
:1014C00020684FF6777382689A4382600A684F2AD1
:1014D0000FDC1F2A22DD202A23D0302A21D0402AE7
:1014E0004DD14B68CA68194600F068FD206840215C
:1014F0003BE06F2A17DDB2F5005F20D0B2F5805FC8
:101500002AD0702A3BD1D1E9012CCB68614600F08A
:1015100041FD2068816841F077011AE00AB1102A84
:101520002DD1114621E0502A18D0602A27D14B68CE
:10153000CA68194600F054FD2068602115E0D1E921
:10154000012CCB68614600F025FD2068816841F4DC
:101550008041816000200BE0002009E04B68CA68F0
:10156000194600F02BFD2068502100F01FFD0020DF
:10157000012184F83D10002184F83C1010BD0120A9
:10158000F6E700007047000010B5044600680169E6
:10159000890744BFC1685FEA817138D42068016956
:1015A000490744BFC1685FEA41713CD420680169C2
:1015B000090744BFC1685FEA017141D4206801692D
:1015C000C90644BFC1685FEAC16145D420680169AA
:1015D000C9071CBFC1685FEAC1714AD120680169AF
:1015E000090644BFC1685FEA016149D42068016906
:1015F000490644BFC1685FEA416148D42068016977
:10160000890644BFC1685FEA816147D410BD6FF0AD
:1016100002010161012121778069800745D02046C0
:10162000FFF7B0FF47E06FF004010161022121776D
:10163000806910F4407F41D02046FFF7A3FF43E0CC
:101640006FF00801016104212177C06980073ED055
:101650002046FFF797FF40E06FF01001016108217D
:101660002177C06910F4407F3AD02046FFF78AFF07
:101670003CE06FF001010161204600F03FF8ADE76A
:101680006FF0800101612046FFF75AFEAEE76FF070
:1016900040010161204600F033F8AFE76FF0200110
:1016A00001612046FFF74EFE10BD204600F022F8F3
:1016B000204600F021F8002020776FE7204600F058
:1016C00019F8204600F018F8002020776EE7204631
:1016D00000F010F8204600F00FF8002020776DE7AA
:1016E000204600F007F8204600F006F8002020779A
:1016F0006CE7000070470000704700007047000072
:1017000070470000002804BF0120704710B5044650
:1017100090F83D0028B9002084F83C00204600F0F5
:1017200021F8242084F83D002068C16821F400518C
:10173000C160204600F066FC2068016921F49041F8
:101740000161416921F02A014161C16841F4005100
:10175000C16000202021206484F83D1084F83E10F0
:1017600010BD000080B586B041F200010068C4F2EF
:101770000101002288420592CDE9032202920192E2
:1017800001D006B080BD43F630000092C4F20200E2
:10179000436943F010034361436903F0100300936E
:1017A000009B0092036843F001030360006800F0AF
:1017B0000100009000984FF4C06001900220CDE934
:1017C0000202032004900720059001F5704001A952
:1017D000FFF704F806B080BDFEE7000070B540F2E8
:1017E0001800C2F20000841E002506A614F8060F99
:1017F00006EBC0004168E8B288470135022DF5D1FB
:1018000070BD00BF00000000DD18000801000000EE
:10181000E518000802000000351800080300000069
:101820003D19000804000000A1190008050000008F
:1018300085190008B0B540F21801044600EB4000DD
:10184000C2F2000101EB400515F8010F10B9204666
:1018500000F098F82878411CC8B20828297006D8EA
:1018600011F0010103D1204600F07EF8B0BD16282A
:1018700004BF01202870B0BD2DE9F04381B040F2D3
:10188000180442F2B55042F6CD3140F20409C2F2DA
:101890000004C0F60000C0F600014FF00008C2F2DC
:1018A0000009012700250026C4E9030139F81600C4
:1018B0006119488081F804804F700021665500F05E
:1018C00081FC06350C2D06F10106EFD102202071B6
:1018D000FFF784FF01B0BDE8F083000080B500F0A1
:1018E00051F880BD70B540F21805044600EB400089
:1018F000C2F2000505EB400616F8010F411CB6F8D0
:101900000100317000F062FC012803D1204600F094
:1019100039F870BD3078042802D1204600F040F834
:1019200030780E2818BF70BD01203070204600F0BE
:1019300029F82A6920460021904770BD80B540F201
:10194000180200EB4001C2F2000202EB410111F863
:10195000012F0132D3B2042B0A7038BF80BD01229F
:101960000A7000F001F880BD80B540F2180100EB6C
:101970004000C2F2000101EB4000408800F02AFC68
:1019800080BD000080B540F2180100EB4000C2F2BB
:10199000000101EB40004088012100F01FFC80BDE8
:1019A00080B540F2180100EB4000C2F2000101EBEB
:1019B00040004088002100F011FC80BD2DE9F04777
:1019C00086B0002743F630000597CDE90377CDE9CF
:1019D00001770097C4F20200016840F2004441F030
:1019E000100101600168C4F2020401F010010091CD
:1019F000009900970168A4F5806541F080010160BD
:101A00000168012201F080010091009900970168AE
:101A10004FF0C00941F00101016001684FF0010879
:101A200001F00101009100990097016841F0020165
:101A300001600068C02100F0020000900098284674
:101A4000FEF7A6FF2046C0210022FEF7A1FF1020CE
:101A500001AE01904FF4041A04F540603146CDE91F
:101A600002A8FEF7BBFE28463146CDE90198CDE934
:101A70000377FEF7B3FE20463146CDE90198CDE964
:101A80000377FEF7ABFE4FF48070CDE9010A2046E4
:101A90003146CDF80C80FEF7A1FE0A200821002275
:101AA000FEF7F4FF0A20FEF7EDFF172000210022C9
:101AB000FEF7ECFF1720FEF7E5FF06B0BDE8F08764
:101AC00010B540F2600443F20000C2F20004C4F218
:101AD00001004FF48271002284E8070004F1140031
:101AE0004FF400734FF0180C80E80C100A20C4E982
:101AF0000A202046C4E90322C4E90822FFF78EFA2F
:101B0000002818BFFEF73EFE2068016841F0400142
:101B1000016010BD80B586B040F2B8000021C2F26D
:101B2000000040F6000240F2E73CCDE90411CDE9A7
:101B30000211CDE90011C4F20002A723C0E9021C82
:101B400001618021C0E900238161FFF759FC002871
:101B500018BFFEF717FE4FF48050029040F2B80015
:101B6000C2F2000002A9FFF79DFC002818BFFEF793
:101B700009FE0020CDE9000040F2B800C2F20000EA
:101B80006946FFF7E1FB002818BFFEF7FBFD06B032
:101B900080BD000080B540F2001041F20001C2F2A9
:101BA0000000C4F2010100234FF00C0C4FF4E132AD
:101BB00080E80E00C0E90333C0E905C3C361FFF745
:101BC000A1FD002818BFFEF7DDFD80BDFEE7000087
:101BD000FEE7000000F0070080F00703042B28BF99
:101BE00004234FF0FF3C03380CFA03F338BF002006
:101BF000994381400CFA00F022EA00000843704744
:101C00007047000010B582B040F20803C2F2000332
:101C10001B6849F68174C1F25E64A3FB043C044670
:101C20004FEA5C504FF47A73584301906068B0F506
:101C3000827F0DD113460A462046802100F014F819
:101C400078B1606D40F020006065032002B010BDE7
:101C5000019830B101980138019020688068000631
:101C6000F6D4002002B010BD2DE9F04381B01E462D
:101C700090460D468146FEF791FE301A00EB0807AC
:101C8000FEF78CFE40F20801C2F200010968C1F3C0
:101C9000CB3179430091D9F8001089682940A942D5
:101CA00019D1064608F1010406E000BFD9F800008A
:101CB00080682840A8420ED1002CF7D0FEF76EFEB7
:101CC000801BB8420BD200980099002808BF074635
:101CD000481E0090EAE7002001B0BDE8F083D9E992
:101CE00000014268B1F5827F22F0E00242600BD130
:101CF000D9F80810B1F5004F02D0B1F5806F03D1CB
:101D0000016821F040010160D9F82810B1F5005FA9
:101D100007D1016821F400510160016841F40051CC
:101D20000160012089F85100002089F8500003204B
:101D300001B0BDE8F083000070470000B0B5013885
:101D40000024B4EB106F1CBF0120B0BD4EF2100593
:101D5000CEF2000568604FF0FF300F2100F0DEF991
:101D60000720AC6028602046B0BD000080B5FEF7BB
:101D70001BFEFFF7E1FA80BD80B540F26420C2F29D
:101D80000000016819B101680139016002D000F05A
:101D90008FFF80BD40F26020C2F20000012101707F
:101DA00000F086FF80BD000070B592B006AC204602
:101DB0003021FEF743FA002543F640000595CDE9B2
:101DC0000355CDE901550095C4F2020001680226D1
:101DD00041F080510160006800F080500090009850
:101DE00047F200000095C4F20000016841F4804110
:101DF00001600068A82100F4804000900098012054
:101E000006904FF4803007904FF480000D9004202E
:101E10000E90119020460C96CDE90F16FEF75AFF52
:101E200088B90F20CDE901064FF4A05004904FF47B
:101E30008050059001A805210395FEF73BFE002880
:101E400004BF12B070BDFEF79DFC00004EF6885036
:101E5000CEF20000016841F470010160704700009B
:101E600080B540F2B800C2F20000FFF78DFB80BDE4
:101E700010B540F6FF3E0368C4F2000E40F2004C7D
:101E80007045C4F2010C0FDCB0F1804F19D040F264
:101E90000042C4F20002904213D040F60002C4F2A5
:101EA000000290420DD010E040F60042C4F2000261
:101EB000904206D0604504D00022C4F20102904254
:101EC00003D14A6823F07003134341F6FF72C4F252
:101ED000000290420DDC70451FDCB0F1804F41D014
:101EE00040F20042C4F2000290423BD040F60002B1
:101EF00021E043F6FF72C4F20102904220DC42F27C
:101F00000002C4F2000290422CD00022C4F201026E
:101F1000904227D0604525D028E040F60042C4F228
:101F2000000290421ED041F60002C4F2000290422C
:101F300018D041F60042C4F20002904212D015E0DF
:101F400044F20002C4F2010290420BD044F60002B7
:101F5000C4F20102904205D044F20042C4F20102F0
:101F6000904203D1CA6823F44073134323F08002E4
:101F70004B69D1F800E08C681A430260C46240F4F7
:101F80008062C0F828E0624504BF0969016301214D
:101F9000416110BDD0F808C011432CF47F4C41EAD8
:101FA000032141EA0C01816070470000826822F041
:101FB0007002114341F0070181607047D0F820C0E2
:101FC000036A23F001030362836923F0F00343EA09
:101FD00002122CF00A03194382610162704700006B
:101FE000036A23F0100303628369D0F820C023F44E
:101FF000704343EA02322CF0A00343EA01118261EC
:102000000162704710B504460068D4E902C2236932
:10201000016921F4405111430161626943EA0C01F5
:10202000E3691143C268194349F20C639A431143AF
:10203000C1604169A26921F4407141F2004311433A
:1020400040F48062C4F201039A42416102D1FEF77A
:10205000F9FD01E0FEF7E4FDE16963681922B1F5DD
:10206000004FA0FB02011CD15A00DB0FFEF7AEF8B7
:1020700048F21F51C5F2EB11A0FB01235A096FF082
:10208000630302FB0300322303EBC000A0FB01014A
:102090004FF4F87000EA111000EB0210C1F3421186
:1020A0001AE09A009B0FFEF791F848F21F51C5F213
:1020B000EB11A0FB01235A096FF0630302FB03003D
:1020C000322303EB0010A0FB0101F02000EA5110C5
:1020D00000EB0210C1F3431122680843906010BD69
:1020E00080B500F0D3FF80BDFEE70000002848BFA8
:1020F000704700F01F01012202FA01F14EF20012B6
:102100004009CEF2000242F8201070474EF60C5003
:10211000CEF200000068C0F3022070474EF6145360
:1021200000F00F02CEF2000309011A4400F16043EF
:10213000B0F1FF3FC8BF03F5644211707047000063
:102140004EF60C51CEF200010A684FF6FF031A401A
:1021500060F30A2242F0806040F0FD700860704732
:1021600080B500F0C9FD00F009FE002000F022F863
:10217000FFF782FB00F002F900F00CFC01A001F077
:10218000A1FC80BD626F61726420706572697068C5
:102190006572616C732061726520696E6974696132
:1021A0006C697A65642E2062792055415254310D54
:1021B0000000000010B5044600F002FE204600F0CA
:1021C00001FF10BD80B500F027FA80BD80B500F09A
:1021D0006DFA80BD80B500F07BFA80BD80B500F05F
:1021E00089FA80BD70B514460D4600F02DF80646FC
:1021F000C069002818BF804730462946224600F0B3
:1022000081FE70BD70B592B01C4615460E4600F0BA
:1022100023F8CDE901060020CDE90300CDE9070050
:1022200001A8CDE90554FFF76DFA12B070BD0000AA
:1022300080B582B08DF807100DF107010122FFF77C
:10224000D1FF02B080BD000040F28831C2F200012F
:102250002C2210FB0210704701A151F8200070479A
:10226000001001400044004000480040004C004085
:10227000005000400014014080B54EF2180140F2B9
:102280003402CEF20001C2F2000251F804CC12680E
:10229000002302FB00FE08680A689042FCD0034459
:1022A0009B1A904298BF63447345104628BF80BD77
:1022B000F2E7000080B54EF2180140F23802CEF28B
:1022C0000001C2F2000251F804CC1288002302FB84
:1022D00000FE08680A689042FCD003449B1A9042B2
:1022E00098BF63447345104628BF80BDF2E70000E5
:1022F00080B540F23C00C2F20000043000F00CF95E
:1023000080BD000040F23C00C2F2000090ED020AE5
:1023100070470000B0B50169044600208847E068B6
:10232000804788B1002000BFA16905460120884789
:10233000E0688047622D03D8002805F10100F3D141
:10234000622D84BF0120B0BDE068804700281CBF1B
:102350000020B0BD002000BFA169054601208847CC
:10236000E0688047622D03D8002805F10100F3D012
:102370000020622D88BF0120B0BD0000B0B582B042
:1023800040F23C05C2F200050021284600F8041B7B
:1023900042F27921C0F6000142F2B524009142F2E6
:1023A0006D4142F2554242F23543C0F60004C0F698
:1023B0000001C0F60002C0F60003019400F014F81A
:1023C000022805D840B205A151F8200001F07AFB9F
:1023D000281D00F0A1F802B0B0BD00BF2C3B0008E2
:1023E000433B00085D3B000810B5044600284FF051
:1023F000020018BF002900D110BD002AFCD0002B1C
:10240000FAD0DDF808C0BCF1000FF5D0DDF80CE023
:10241000BEF1000F08BF10BD0020C4E9000004F1A8
:10242000080080E80E50204600F064F82046FFF7D0
:1024300071FF10BD10B5441E43F67930C0F60000A0
:1024400018BF012400F0C0F880B22146FFF7BAFEA1
:1024500010BD000080B543F67930C0F6000000F0F2
:10246000B3F880B2FFF7B2FE80BD000010B504469D
:1024700043F67930C0F6000000F0A6F880B221469D
:10248000FFF7ACFE10BD0000B0B50446C068804741
:1024900058B10025A16901208847E0688047622D76
:1024A00003D8002805F10105F4D1E068804760B940
:1024B000002500BFA16901208847E0688047622DA0
:1024C00003D8002805F10105F4D0A1692820884728
:1024D000E0688047B0BD000070B5044600250826BE
:1024E0002046FFF7D1FF013E40EA4505F8D1E8B2AA
:1024F00070BD000010B50169044601208847A1683D
:1025000000208847616914208847A1680120884716
:10251000A1691E20884710BD70B582B00446FFF740
:10252000E9FF2046FFF7F6FE10B1012002B070BDB2
:102530000DF10300451E05262046FFF7CDFF013EA5
:1025400005F8010FF8D19DF803009DF804109DF8DF
:1025500005209DF806300E1816441E449DF80750BD
:10256000F6B2AE4219D1642612FB063210FB0610F9
:1025700000EE102A9FED0A1A02EE100AB8EEC00A09
:10258000B8EEC22A80EE010A82EE011A002084ED24
:10259000000A84ED011A02B070BD032002B070BDC4
:1025A0000000C84210B50446C1B20020FFF740FE4B
:1025B000204610BD40F2180100EB4000C2F20001BD
:1025C00001EB40000079704710B50446007800F038
:1025D000DF00502805D12046FDF73BFEC11E012932
:1025E00002D94FF0FF3010BDA278617842F020028E
:1025F00041F020010428A2F1300007DBE27800EB73
:10260000800042F0200202EB4000303800EB011065
:10261000A0F5C26010BD000010B586B0002243F6E0
:10262000300C0592CDE90322CDE90122C4F2020C5F
:1026300000F00F024FF0010EC0F30710DCF800307D
:102640000EFA02F20EFA00F4234392B2CCF80030F4
:10265000CDE9012E02220429049208D849B209A228
:102660000DA352F8212053F82110CDE902210021B9
:10267000C4F2020101EB802001A9FEF7AFF806B019
:1026800010BD00BF010000000000000000000000BD
:102690000000000011000000000000000000000029
:1026A00001000000020000000000000080B500F002
:1026B0000F01012202FA01F10022C0F30710C4F257
:1026C000020202EB802089B2FEF754F980BD0000BF
:1026D00080B500F00F01012202FA01F10022C0F3DF
:1026E0000710C4F2020202EB802089B2FEF748F91B
:1026F00080BD000080B50A4600F00F01012303FAF7
:1027000001F10023C0F30710C4F2020303EB8020A1
:1027100089B2FEF73DF980BDFEF754F9FFF744FB9F
:10272000FFF74CF9FFF7CCF9FFF734FAFFF7F2F9AE
:10273000FFF716FD00F064FAFCE70000B0B50028D2
:102740004FF0010518BF002901D12846B0BD002B6C
:10275000FBD0044604980028F7D0DDF814C0BCF183
:10276000000FF2D042F6E505C0F60005002A18BFBA
:102770001546C4E904302046C4E90215C4F818C05F
:1027800000F06CF890B14FF0FF3500BFA1694FF435
:10279000967001358847204600F060F8032D01D877
:1027A0000028F3D1032D84BF0220B0BD00252046B0
:1027B00001216560256000F02DF92846B0BD0000BC
:1027C000F0B581B01646C268054600201C460F468B
:1027D0009047A968384688473CB1013EA968FF2068
:1027E0008847013C06F8010FF8D1E96801208847C5
:1027F00001B0F0BDF0B581B01646C26805460020B4
:102800001C460F469047A9683846884734B1013EB8
:10281000A96816F8010F8847013CF9D1E968012041
:10282000884701B0F0BD000080B582B08DF8070088
:1028300000208DF8060040F260004FF47A7CC2F26E
:1028400000000DF107010DF106020123CDF800C0D3
:10285000FEF778FC9DF8060002B080BDB0B584B0EC
:1028600005466FF05A008DF80C004FF0A53002902D
:102870006FF055008DF804004FF0AA30009002AAC6
:10288000284630210523FFF7B5FF6C462846102166
:1028900022460523FFF794FF002000BF215CA529F5
:1028A00005D101300528F9D1002004B0B0BD0120C8
:1028B00004B0B0BD10B5044603A0FFF785FE80B29A
:1028C0002146FFF78BFC10BD5042360010B5044680
:1028D00003A0FFF779FE80B22146FFF77FFC10BD11
:1028E0005042370070470000B0B588B043F60C3056
:1028F000C0F6000090E80250BDEEC01A0091B8EE9C
:10290000C12A11EE101A9FED151A30EE420A00F19D
:102910000C05C06920EE010A3CCDBDEEC00ACDE930
:1029200001CE0DF10C0C079010EE100A8CE83C0063
:102930008DF8030040F244108DF80210C2F200003E
:10294000694600F0EBF80AA105A2202808BF11464D
:10295000084601F0B7F808B0B0BD00BF0000C8429B
:1029600073656E6420737563636573730D00000097
:1029700073656E64206661696C65640D000000001B
:1029800080B582B0ADF80600BDF80600FFF774FC14
:1029900002B080BD80B582B042F60120C0F60000D2
:1029A00042F6811C009040F2441042F6290142F6A2
:1029B000CD0242F6B503C0F6000CC2F20000C0F62C
:1029C0000001C0F60002C0F60003CDF804C0FFF716
:1029D000B5FE20B103A001F075F800BFFEE702B01C
:1029E00080BD00BF6E726632346C303120696E6912
:1029F00074206973206661696C65642E0D000000A7
:102A000080B503A0FFF7E0FD80B2FFF7DFFB80BDDC
:102A100050423800B0B50269044600200D46904788
:102A2000012D1ED143F60032C0F6000220462A21B5
:102A30000523FFF7DFFE20462121012200F0B4F834
:102A400020462221012200F0AFF82046252128222D
:102A500000F0AAF820463121202200F0A5F80F2529
:102A600026E043F60532C0F6000220463021052359
:102A7000FFF7C0FE43F60032C0F6000220462A21CE
:102A80000523FFF7B7FE20462121012200F08CF834
:102A900020462221012200F087F8204624211A2214
:102AA00000F082F820462521282200F07DF80E252E
:102AB000204626210F2200F077F8204620212A46C2
:102AC00000F072F82046002100F05CF820702046EB
:102AD000012100F057F860702046022100F052F802
:102AE000A0702046032100F04DF8E070204604213C
:102AF00000F048F820712046052100F043F860718D
:102B00002046062100F03EF8A0712046072100F083
:102B100039F82169E07101208847B0BDB0B50D4694
:102B200000210446FFF776FF182000F0CFF8216956
:102B3000002088472046A0212A462023FFF75AFE7E
:102B400021690120884700BF606980470028FBD1C8
:102B50002046072100F016F80546204627212A4680
:102B600000F022F8E80605D4A8064FF0200058BF70
:102B7000FF20B0BD2046E121FF2200F015F8102013
:102B8000B0BD0000B0B5C268044600200D469047B5
:102B9000A16828468847A168FF208847E168044665
:102BA000012088472046B0BD70B51446C26805466E
:102BB00000200E469047A96830468847A9682046FD
:102BC0008847E9680120884770BD000040F218027C
:102BD00000EB4000C2F2000202EB400001717047BE
:102BE0008160012181F3108840F23001C2F20001BE
:102BF000096811440160002181F310884360704727
:102C0000F0B581B040F25C00C2F200000468F4B19B
:102C100040F23005C2F20005012600270CE000BF9B
:102C200086F31088286861680844206087F310885C
:102C3000A0688047E46854B1286821688842F9D3C5
:102C400060680028ECD1204600F018F8F0E701B0E9
:102C5000F0BD000040F25C01C2F200010A683AB126
:102C6000824204BF4FF0FF307047D268002AF7D18C
:102C70000A680860C26000207047000040F25C01F2
:102C8000C2F200010A68002A08BF704740F25C01E6
:102C9000C2F2000104E000BF12680A600A682AB1AB
:102CA000824202F10C02F7D01146F7E770470000AC
:102CB000012080F3108840F23000C2F20000016869
:102CC00001310160002080F31088704740F26001FC
:102CD000C2F2000109684FF6C7730A6822F0400289
:102CE0000A600A681A400A600A68104308600868A7
:102CF00040F040000860704740F20800C2F2000057
:102D0000006844F6D351C1F26201A0FB01124DF6F6
:102D10008361C4F21B31A0FB0101900940F234022F
:102D2000C2F200021060880C40F23801C2F20001C9
:102D30000880704780B5FEF751FD80BD80B500204A
:102D4000FFF7D6FA0020FFF7DDFA10EE100AFDF7C4
:102D500087FA024604A00B4600F03AFA0020FFF77B
:102D6000D1FAFFF7C1FD80BD68756D69646974793A
:102D7000203D20252E32662E09000000B0B540F21D
:102D80006824C2F2000442F63551C0F60001204624
:102D900032223223FFF724FF04F1100542F63D51A1
:102DA000C0F6000128464FF47A724FF47A73FFF7A9
:102DB00017FF2046FFF74EFF2846FFF74BFFB0BD39
:102DC00040F2883CC2F2000C2C2341F2000210FBBE
:102DD00003C14343C4F201024CF8032040F28822AD
:102DE000C2F2000202EB00224A6040F26012C2F21C
:102DF000000202EB002008614FF480700881888295
:102E0000488940F2FF3200F47C404881C868904312
:102E1000C860C88A00F47C40C88288696FF30900E2
:102E20008861C8686FF39320C86088696FF3932046
:102E300088610020C1E90700486281F828007047D6
:102E400081B005285CD8DFE800F003111F2D3B4C52
:102E50000020009043F64000C4F20200416841F0B7
:102E600010014160406800F0100036E00020009042
:102E700043F64000C4F20200016841F400310160F1
:102E8000006800F4003028E00020009043F6400085
:102E9000C4F20200016841F480210160006800F47E
:102EA00080201AE00020009043F64000C4F20200A7
:102EB000016841F400210160006800F400200CE08A
:102EC0000020009043F64000C4F20200016841F483
:102ED00080110160006800F480100090009801B03B
:102EE00070470020009043F64000C4F202004168A1
:102EF00041F020014160406800F0200000900098FF
:102F000001B0704770B581B0002A53D04FF0000C6B
:102F100001234FF0000E0DE0C468C56804F580641D
:102F2000A40A64F39325C5600EF1010E8CF310889A
:102F300096453FD083F31088C468C4F38924ADF864
:102F400002408CF3108808E083F31088C468C4F34F
:102F50008924ADF802408CF31088BDF80250048932
:102F6000A5420DD3BDF80250A542EDD10468E56835
:102F70002D06E9D4E56845F08005E560E4E700BF8B
:102F800011F80E40456846896FF39F26AC5583F3D0
:102F900010884489458901346FF39F2405F47C45EA
:102FA000254445810589AC42B6D3448904F47C4468
:102FB0004481B1E70068C16841F08001C16001B09F
:102FC00070BD00002DE9F04385B040F20C010446CD
:102FD00000EB4000C2F200010A5C01EB000802F0C5
:102FE0000F004FF00109002109FA00F61009C4F2A0
:102FF0000201002741EA802543F630010497CDE91C
:103000000277CDE90077C4F202010A6809FA00F0FC
:10301000104308602046FFF713FF0220CDE90109A5
:103020000320039008200096032C38BF07206E462B
:10303000049028463146FDF7D1FB284631460097DB
:10304000FDF7CCFB98F9020000210122FDF71EFDDF
:1030500098F90200FDF716FD20464FF4E1310022F9
:103060000C23FFF7CFF82046FFF7F6F8016821F0B0
:1030700040010160016821F020010160C16841F058
:103080002001C16005B0BDE8F0830000F0B581B05B
:1030900040F28834C2F2000420684FF6004506680A
:1030A000C7684169B106C0F20F0527D5406821699C
:1030B000E28A6FF39F228854E18A4A1CE18A6FF307
:1030C0009F2201F47C411144E182A18A8A4203D308
:1030D000E28A02F47C42E282A269C2F389228A4235
:1030E00008D2A169A26901F5806129406FF393229A
:1030F0001143A161616A09B1C0B2884707EA0600BD
:10310000010630D5E168294223D0012184F8281036
:10311000D4E90012E3686FF39F23D25C4A60E16850
:10312000E268013161F30902E26022896FF39F21B5
:10313000914204D3E16840F2FF329143E1602146BD
:1031400051F80C2F0B682A442A406FF393231A433B
:1031500008E0216851F80C2F22F080020A600A680A
:1031600042F040020A60400621D5E068284220D0A3
:10317000D4E90001E2686FF39F22895C4160E06856
:10318000E168013060F30901E16021896FF39F205C
:10319000884204D3E06840F2FF318843E060E06891
:1031A000E168284428406FF393210843E06001B0B0
:1031B000F0BD2168206ACA68002822F04002CA6077
:1031C00018BF8047002084F8280001B0F0BD00003F
:1031D0000FB4054B10B503A9044A029800F0DAF8C1
:1031E00010BC5DF814FB0000A525000800000020BD
:1031F00002E008C8121F08C1002AFAD170477047C0
:10320000002001E001C1121F002AFBD1704700001D
:103210002DE9FF5F82B00021DDE90430020DDDF809
:1032200040B0034318D044F61050A2F2FF3242439C
:103230001514119801281FD0A5EB0B00401C5FEA64
:10324000000A4FF000064E4FDFF83891B046504666
:1032500015D5CAF1000413E0119801244AA30128EE
:1032600001D16FEA0B010298119AC0E90031C0E95F
:10327000024206B0BDE8F09FCBF10000DFE7044654
:103280000021404A491842EB0450CDE9001012E0F9
:10329000E00707D032463B4640464946FDF7CFF8A7
:1032A0008046894632463B4610461946FDF7C7F828
:1032B00006460F466410002CEAD1DDE90401DDE981
:1032C0000023BAF1000F06DAFDF7B9F842464B4683
:1032D000FDF7B5F805E0FDF724F942464B46FDF74A
:1032E00020F904460E460022284BFDF7A1F903D829
:1032F0004FF0FF30014607E00022254B20463146C3
:10330000FCF7F6FFFDF77CF9102409E0002C0ADB3E
:103310000A220023FCF75AFF039B30321A55641E21
:1033200050EA0102F2D1641C039AC4F1110314445F
:10333000119A012A03D0012208430DD10AE0084363
:1033400004D000204FF0110B119072E7A3EB0B0596
:103350006D1E0DE05B4504DD4FF0000205F1010537
:1033600004E003DA4FF00002A5F10105002AECD0D9
:1033700002981199C0E90231C0E9004579E70000DF
:10338000000014400000F03F300000000000F04357
:103390000000E03F2DE9FF4F95B09B468946064669
:1033A00000250FE2252877D100242746F84A01217D
:1033B000059400E0044316F8013F203B01FA03F0B6
:1033C0001042F7D130782A2811D06FF02F033078CF
:1033D000A0F13002092A16D8059A44F0020402EB43
:1033E000820203EB42021044761C0590EFE759F885
:1033F000042B0592002A03DA504244F4005405904D
:1034000044F00204761C30782E2816D116F8010FED
:1034100044F004042A280DD06FF02F023078A0F178
:103420003003092B09D807EB870302EB4303C718C6
:10343000761CF3E759F8047B761C30786C280FD0A3
:1034400006DC4C2817D068280DD06A2814D104E077
:10345000742810D07A280FD10DE044F400140AE04B
:1034600044F4801401E044F440147278824202D1A2
:1034700004F58014761C761C307866280BD013DC9B
:10348000582877D009DC002875D04528F6D0462882
:10349000F4D047281AD19DE118E0632835D064287C
:1034A00079D0652812D195E1702873D008DC67289F
:1034B000F1D069286FD06E280DD06F2806D1B5E005
:1034C00073282CD0752875D0782874D05A4617994F
:1034D00090476D1C75E1C4F30250022809D00328FF
:1034E0000DD0D9F8001004280DD00D6009F10409A1
:1034F00067E1D9F80010EA17C1E90052F6E7D9F8F8
:1035000000100D80F2E70D70F0E719F8041B8DF83C
:10351000001000208DF80100EA46012003E059F870
:1035200004AB4FF0FF3061074FF0000102D40DE013
:1035300008F101018846B9420FDA8045F8DB1AF834
:1035400008100029F4D108E008F101018846814201
:10355000FADB1AF808100029F6D105985B46A0EBB3
:10356000080721463846179A00F094FA284400EBE1
:10357000080507E04DE029E10DE01AF8010B5A4675
:1035800017999047B8F10108F7D25B4621463846B3
:10359000179A13E142E00A220092C4F302524FF05C
:1035A000000A022A08D059F804CB032A4FEAEC712A
:1035B0000AD00DE029E02AE009F1070121F0070215
:1035C000F2E802C1914609E00FFA8CFC4FEAEC7177
:1035D000042A03D14FFA8CFC4FEAEC71002907DA78
:1035E0000A460021DCF1000C61EB02012D2202E011
:1035F000220504D52B228DF80420012203E0E207E6
:1036000001D02022F7E7904659E00A2102E010227B
:103610000DE010214FF0000A00910BE010224FF056
:10362000000A44F004040827009203E008224FF047
:10363000000A0092C4F30252022A05D059F804CBC2
:103640000021032A08D009E009F1070121F007024F
:10365000F2E802C1914605E01FFA8CFC042A01D170
:103660000CF0FF0C4FF00008220728D5702806D078
:10367000009B83F0100353EA0A0305D00EE04022BA
:103680008DF80420012208E05CEA010206D0302215
:103690008DF804208DF8050002229046009B83F0EF
:1036A000080353EA0A030AD15CEA010201D1620766
:1036B00005D530228DF804204FF001087F1E5828D0
:1036C00004D034A003900EA802900DE036A0F9E7D4
:1036D00053466046009AFCF779FD84460398825C65
:1036E0000298401E029002705CEA0100F0D102983C
:1036F00006A9081A00F1200A600702D524F48034D4
:1037000000E00127574502DDA7EB0A0000E000209A
:1037100000EB0A01009005984144401A0590E0032F
:1037200006D45B462146179A059800F0B3F9054484
:10373000002706E001A85A46C05D179990476D1C06
:103740007F1C4745F6DBE0030CD55B462146179A04
:10375000059800F09FF9054404E030205A46179977
:1037600090476D1C0099481E00900029F5DC08E088
:10377000029802995A460078491C0291179990477D
:103780006D1CBAF10001AAF1010AF1DC65E100004B
:103790000928010030313233343536373839616227
:1037A00063646566000000003031323334353637EB
:1037B00038394142434445460000000000F058F9C2
:1037C0000544761C307800287FF4ECAD19B028460B
:1037D000BDE8F08F620700D4062709F1070222F046
:1037E000070CFCE80223E14603F000485FEA080CFE
:1037F00002D00FF2702C0DE05FEA045C02D50FF2EC
:10380000682C07E05FEAC47C02D00FF2602C01E074
:10381000AFF2700C4FF0FF3823F00043CDF850C0EA
:1038200065280CD006DC452809D046281DD047283D
:103830003DD13DE0662818D067287ED138E00021D0
:10384000112F01DB112000E0781CCDE9000106A951
:103850000EA8FFF7DDFCDDE90F010E9A03910021B0
:10386000009207F1010A04914DE04FF000400097EB
:10387000CDE9011006A90EA8FFF7CAFCDDE90F0289
:1038800003920E9B11990022DDF80CA00093049284
:1038900011B9791C00EB010AB7EB0A0004D4C0F19E
:1038A000FF3007F1010A0490AAEB0700019044E001
:1038B000012F00DA01270021112F01DD112000E086
:1038C0003846CDE9000106A90EA8FFF7A1FCDDE905
:1038D0000F010E9A0391002104910092BA4621072C
:1038E0000CD40399514500DA8A46BAF1010F05DD7F
:1038F000009AAAF10101515C302908D0B84202DADD
:1039000010F1040F06DA0121CDE9011015E0AAF14A
:103910000101E9E7002805DC049901440491AAEBC0
:10392000000102E0411C514500DD8A460499401A1D
:10393000401C01904FF000400290200704D40198F1
:10394000504501DBCDF8048000208DF84F0002982F
:103950000DF14F07B0F1004F25D02B200E900298AB
:103960004FF0020800280CDA404202902D200E9001
:1039700007E00A210298FCF786FC3031029007F834
:10398000011DB8F10001A8F10108F2DC029800283D
:10399000EFD1791E0E980870307800F0200040F0CA
:1039A000450007F8020D12A8C01B00F10708149883
:1039B000007800B1012000EB0A01019801EBE071F1
:1039C00005984144401A401E0590E00306D45B462A
:1039D0002146179A059800F05DF805441498007880
:1039E00018B15A46179990476D1CE00324D55B46E1
:1039F0002146179A059800F04DF805441CE00498FC
:103A0000002807DBDDE90301884203DD0098405C04
:103A1000179901E0179930205A469047049805F10C
:103A20000105401C04900198401E019004D12E20F5
:103A30005A46179990476D1CBAF10001AAF1010A84
:103A4000DDDC05E017F8010B5A46179990476D1C0D
:103A5000B8F10001A8F10108F4DC5B462146179A91
:103A60000598ABE62D0000002B00000020000000B0
:103A70002DE9F041044600251E461746880404D46B
:103A800005E039462020B0476D1C641EF9D5284654
:103A9000BDE8F0812DE9F041044600251E46904620
:103AA000C80301D5302700E02027880404D505E0AD
:103AB00041463846B0476D1C641EF9D52846BDE81E
:103AC000F081000010B5044601E0FEF76BFD14F82C
:103AD000010B04490028F8D1BDE810400A20FEF788
:103AE00061BD000000000020000000000000000098
:103AF0000102030406070809000000000102030494
:103B0000344310100134431010010000AA0F0000CC
:103B1000F0AA00000000000000000000000000000B
:103B20000000000000000000000000004448543184
:103B30003120697320696E697469616C697A6564A2
:103B40002E0D0043616E27742066696E6420444820
:103B5000543131206465766963652E0D00496E69C4
:103B60007469616C697A652066756E6374696F6EDD
:103B7000206572726F722E0D0050453300000000F8
:103B8000A03B00080000002018000000F0310008F1
:103B9000B83B000818000020A00700000032000811
:103BA00000000000070000000024F400090A2501BD
:083BB0001000000000000000FD
:040000050800019559
:00000001FF
